{"contracts/DidManager.sol":{"DidManager":{"abi":[{"inputs":[],"stateMutability":"nonpayable","type":"constructor"},{"anonymous":false,"inputs":[{"indexed":true,"internalType":"bytes32","name":"id","type":"bytes32"},{"indexed":true,"internalType":"address","name":"creator","type":"address"}],"name":"DidCreated","type":"event"},{"inputs":[{"internalType":"bytes32","name":"method0","type":"bytes32"},{"internalType":"bytes32","name":"method1","type":"bytes32"},{"internalType":"bytes32","name":"method2","type":"bytes32"},{"internalType":"bytes32","name":"random","type":"bytes32"}],"name":"createDid","outputs":[],"stateMutability":"nonpayable","type":"function"}],"evm":{"bytecode":{"linkReferences":{},"object":"608060405234801561001057600080fd5b506102bf806100206000396000f3fe608060405234801561001057600080fd5b506004361061002b5760003560e01c8063fbd95c5514610030575b600080fd5b61004361003e366004610230565b610045565b005b8061008c5760405162461bcd60e51b8152602060048201526012602482015271052616e646f6d2063616e6e6f7420626520360741b60448201526064015b60405180910390fd5b8361009c5763363d383360e11b93505b826100ac576336b0b4b760e11b92505b816100b657600091505b604080516020810186905290810184905260608082018490526080820183905233901b6bffffffffffffffffffffffff191660a08201524260b482015260009060d40160408051601f1981840301815282825280516020918201209083018890529082018690526060820185905260808201819052915060009060a001604051602081830303815290604052805190602001209050610154816101d3565b6101955760405162461bcd60e51b815260206004820152601260248201527144494420616c72656164792065786973747360701b6044820152606401610083565b61019e81610210565b604051339083907fc4e16972f67284004a0a3bc3498bface6e7c575ad245dc1267778ebe946f28a190600090a3505050505050565b6000818152602081905260408120544211806101fb5750600082815260208190526040902054155b1561020857506001919050565b506000919050565b61021e630784ce0042610262565b60009182526020829052604090912055565b6000806000806080858703121561024657600080fd5b5050823594602084013594506040840135936060013592509050565b8082018082111561028357634e487b7160e01b600052601160045260246000fd5b9291505056fea264697066735822122038891397537e9881f899eb6d997e2e6dc0e5f175c120b193b654a00e7efbe8fe64736f6c63430008140033","opcodes":"PUSH1 0x80 PUSH1 0x40 MSTORE CALLVALUE DUP1 ISZERO PUSH2 0x10 JUMPI PUSH1 0x0 DUP1 REVERT JUMPDEST POP PUSH2 0x2BF DUP1 PUSH2 0x20 PUSH1 0x0 CODECOPY PUSH1 0x0 RETURN INVALID PUSH1 0x80 PUSH1 0x40 MSTORE CALLVALUE DUP1 ISZERO PUSH2 0x10 JUMPI PUSH1 0x0 DUP1 REVERT JUMPDEST POP PUSH1 0x4 CALLDATASIZE LT PUSH2 0x2B JUMPI PUSH1 0x0 CALLDATALOAD PUSH1 0xE0 SHR DUP1 PUSH4 0xFBD95C55 EQ PUSH2 0x30 JUMPI JUMPDEST PUSH1 0x0 DUP1 REVERT JUMPDEST PUSH2 0x43 PUSH2 0x3E CALLDATASIZE PUSH1 0x4 PUSH2 0x230 JUMP JUMPDEST PUSH2 0x45 JUMP JUMPDEST STOP JUMPDEST DUP1 PUSH2 0x8C JUMPI PUSH1 0x40 MLOAD PUSH3 0x461BCD PUSH1 0xE5 SHL DUP2 MSTORE PUSH1 0x20 PUSH1 0x4 DUP3 ADD MSTORE PUSH1 0x12 PUSH1 0x24 DUP3 ADD MSTORE PUSH18 0x52616E646F6D2063616E6E6F74206265203 PUSH1 0x74 SHL PUSH1 0x44 DUP3 ADD MSTORE PUSH1 0x64 ADD JUMPDEST PUSH1 0x40 MLOAD DUP1 SWAP2 SUB SWAP1 REVERT JUMPDEST DUP4 PUSH2 0x9C JUMPI PUSH4 0x363D3833 PUSH1 0xE1 SHL SWAP4 POP JUMPDEST DUP3 PUSH2 0xAC JUMPI PUSH4 0x36B0B4B7 PUSH1 0xE1 SHL SWAP3 POP JUMPDEST DUP2 PUSH2 0xB6 JUMPI PUSH1 0x0 SWAP2 POP JUMPDEST PUSH1 0x40 DUP1 MLOAD PUSH1 0x20 DUP2 ADD DUP7 SWAP1 MSTORE SWAP1 DUP2 ADD DUP5 SWAP1 MSTORE PUSH1 0x60 DUP1 DUP3 ADD DUP5 SWAP1 MSTORE PUSH1 0x80 DUP3 ADD DUP4 SWAP1 MSTORE CALLER SWAP1 SHL PUSH12 0xFFFFFFFFFFFFFFFFFFFFFFFF NOT AND PUSH1 0xA0 DUP3 ADD MSTORE TIMESTAMP PUSH1 0xB4 DUP3 ADD MSTORE PUSH1 0x0 SWAP1 PUSH1 0xD4 ADD PUSH1 0x40 DUP1 MLOAD PUSH1 0x1F NOT DUP2 DUP5 SUB ADD DUP2 MSTORE DUP3 DUP3 MSTORE DUP1 MLOAD PUSH1 0x20 SWAP2 DUP3 ADD KECCAK256 SWAP1 DUP4 ADD DUP9 SWAP1 MSTORE SWAP1 DUP3 ADD DUP7 SWAP1 MSTORE PUSH1 0x60 DUP3 ADD DUP6 SWAP1 MSTORE PUSH1 0x80 DUP3 ADD DUP2 SWAP1 MSTORE SWAP2 POP PUSH1 0x0 SWAP1 PUSH1 0xA0 ADD PUSH1 0x40 MLOAD PUSH1 0x20 DUP2 DUP4 SUB SUB DUP2 MSTORE SWAP1 PUSH1 0x40 MSTORE DUP1 MLOAD SWAP1 PUSH1 0x20 ADD KECCAK256 SWAP1 POP PUSH2 0x154 DUP2 PUSH2 0x1D3 JUMP JUMPDEST PUSH2 0x195 JUMPI PUSH1 0x40 MLOAD PUSH3 0x461BCD PUSH1 0xE5 SHL DUP2 MSTORE PUSH1 0x20 PUSH1 0x4 DUP3 ADD MSTORE PUSH1 0x12 PUSH1 0x24 DUP3 ADD MSTORE PUSH18 0x44494420616C726561647920657869737473 PUSH1 0x70 SHL PUSH1 0x44 DUP3 ADD MSTORE PUSH1 0x64 ADD PUSH2 0x83 JUMP JUMPDEST PUSH2 0x19E DUP2 PUSH2 0x210 JUMP JUMPDEST PUSH1 0x40 MLOAD CALLER SWAP1 DUP4 SWAP1 PUSH32 0xC4E16972F67284004A0A3BC3498BFACE6E7C575AD245DC1267778EBE946F28A1 SWAP1 PUSH1 0x0 SWAP1 LOG3 POP POP POP POP POP POP JUMP JUMPDEST PUSH1 0x0 DUP2 DUP2 MSTORE PUSH1 0x20 DUP2 SWAP1 MSTORE PUSH1 0x40 DUP2 KECCAK256 SLOAD TIMESTAMP GT DUP1 PUSH2 0x1FB JUMPI POP PUSH1 0x0 DUP3 DUP2 MSTORE PUSH1 0x20 DUP2 SWAP1 MSTORE PUSH1 0x40 SWAP1 KECCAK256 SLOAD ISZERO JUMPDEST ISZERO PUSH2 0x208 JUMPI POP PUSH1 0x1 SWAP2 SWAP1 POP JUMP JUMPDEST POP PUSH1 0x0 SWAP2 SWAP1 POP JUMP JUMPDEST PUSH2 0x21E PUSH4 0x784CE00 TIMESTAMP PUSH2 0x262 JUMP JUMPDEST PUSH1 0x0 SWAP2 DUP3 MSTORE PUSH1 0x20 DUP3 SWAP1 MSTORE PUSH1 0x40 SWAP1 SWAP2 KECCAK256 SSTORE JUMP JUMPDEST PUSH1 0x0 DUP1 PUSH1 0x0 DUP1 PUSH1 0x80 DUP6 DUP8 SUB SLT ISZERO PUSH2 0x246 JUMPI PUSH1 0x0 DUP1 REVERT JUMPDEST POP POP DUP3 CALLDATALOAD SWAP5 PUSH1 0x20 DUP5 ADD CALLDATALOAD SWAP5 POP PUSH1 0x40 DUP5 ADD CALLDATALOAD SWAP4 PUSH1 0x60 ADD CALLDATALOAD SWAP3 POP SWAP1 POP JUMP JUMPDEST DUP1 DUP3 ADD DUP1 DUP3 GT ISZERO PUSH2 0x283 JUMPI PUSH4 0x4E487B71 PUSH1 0xE0 SHL PUSH1 0x0 MSTORE PUSH1 0x11 PUSH1 0x4 MSTORE PUSH1 0x24 PUSH1 0x0 REVERT JUMPDEST SWAP3 SWAP2 POP POP JUMP INVALID LOG2 PUSH5 0x6970667358 0x22 SLT KECCAK256 CODESIZE DUP10 SGT SWAP8 MSTORE8 PUSH31 0x9881F899EB6D997E2E6DC0E5F175C120B193B654A00E7EFBE8FE64736F6C63 NUMBER STOP ADDMOD EQ STOP CALLER "},"methodIdentifiers":{"createDid(bytes32,bytes32,bytes32,bytes32)":"fbd95c55"}},"storageLayout":{"storage":[{"astId":30,"contract":"contracts/DidManager.sol:DidManager","label":"expirationDate","offset":0,"slot":"0","type":"t_mapping(t_bytes32,t_uint256)"}],"types":{"t_bytes32":{"encoding":"inplace","label":"bytes32","numberOfBytes":"32"},"t_mapping(t_bytes32,t_uint256)":{"encoding":"mapping","key":"t_bytes32","label":"mapping(bytes32 => uint256)","numberOfBytes":"32","value":"t_uint256"},"t_uint256":{"encoding":"inplace","label":"uint256","numberOfBytes":"32"}}}}}}