{"contracts/DidManager.sol":{"DidManager":{"abi":[{"inputs":[{"internalType":"contract IVMStorage","name":"vmStorage","type":"address"},{"internalType":"contract IServiceStorage","name":"serviceStorage","type":"address"}],"stateMutability":"nonpayable","type":"constructor"},{"anonymous":false,"inputs":[{"indexed":true,"internalType":"bytes32","name":"idHash","type":"bytes32"},{"indexed":true,"internalType":"address","name":"creator","type":"address"}],"name":"DidCreated","type":"event"},{"anonymous":false,"inputs":[{"indexed":true,"internalType":"bytes32","name":"didIdHash","type":"bytes32"},{"indexed":true,"internalType":"bytes32","name":"id","type":"bytes32"},{"indexed":true,"internalType":"bytes32","name":"vmIdHash","type":"bytes32"},{"indexed":false,"internalType":"bytes32","name":"positionHash","type":"bytes32"}],"name":"VMCreated","type":"event"},{"anonymous":false,"inputs":[{"indexed":true,"internalType":"bytes32","name":"id","type":"bytes32"}],"name":"VMValidated","type":"event"},{"inputs":[{"internalType":"bytes32","name":"method0","type":"bytes32"},{"internalType":"bytes32","name":"method1","type":"bytes32"},{"internalType":"bytes32","name":"method2","type":"bytes32"},{"internalType":"bytes32","name":"id","type":"bytes32"},{"internalType":"bytes32","name":"vmId","type":"bytes32"}],"name":"addController","outputs":[],"stateMutability":"nonpayable","type":"function"},{"inputs":[{"internalType":"bytes32","name":"method0","type":"bytes32"},{"internalType":"bytes32","name":"method1","type":"bytes32"},{"internalType":"bytes32","name":"method2","type":"bytes32"},{"internalType":"bytes32","name":"random","type":"bytes32"},{"internalType":"bytes32","name":"vmId","type":"bytes32"}],"name":"createDid","outputs":[],"stateMutability":"nonpayable","type":"function"},{"inputs":[{"internalType":"bytes32","name":"method0","type":"bytes32"},{"internalType":"bytes32","name":"method1","type":"bytes32"},{"internalType":"bytes32","name":"method2","type":"bytes32"},{"internalType":"bytes32","name":"id","type":"bytes32"},{"internalType":"bytes32","name":"vmId","type":"bytes32"},{"internalType":"bytes32","name":"type_","type":"bytes32"},{"internalType":"bytes32[16]","name":"publicKey","type":"bytes32[16]"},{"internalType":"bytes32[5]","name":"blockchainAccountId","type":"bytes32[5]"},{"internalType":"address","name":"thisBCAddress","type":"address"},{"internalType":"uint256","name":"expiration","type":"uint256"}],"name":"createVM","outputs":[],"stateMutability":"nonpayable","type":"function"},{"inputs":[{"internalType":"bytes32","name":"positionHash","type":"bytes32"},{"internalType":"uint256","name":"expiration","type":"uint256"}],"name":"validateVM","outputs":[],"stateMutability":"nonpayable","type":"function"}],"evm":{"bytecode":{"linkReferences":{},"object":"608060405234801561001057600080fd5b50604051610a8a380380610a8a83398101604081905261002f91610078565b600080546001600160a01b039384166001600160a01b031991821617909155600180549290931691161790556100b2565b6001600160a01b038116811461007557600080fd5b50565b6000806040838503121561008b57600080fd5b825161009681610060565b60208401519092506100a781610060565b809150509250929050565b6109c9806100c16000396000f3fe608060405234801561001057600080fd5b506004361061004c5760003560e01c806333521c6d146100515780633927552914610066578063c2017b2d1461007b578063eebc04af1461008e575b600080fd5b61006461005f366004610733565b6100a1565b005b610064610074366004610755565b5050505050565b610064610089366004610755565b61014b565b61006461009c366004610790565b610503565b600080546040516333521c6d60e01b815260048101859052602481018490526001600160a01b03909116906333521c6d906044016020604051808303816000875af11580156100f4573d6000803e3d6000fd5b505050506040513d601f19601f820116820180604052508101906101189190610835565b60405190915081907f89096e1dcbf6cc6fc9a1ad30b140a66d57974392ca88c0c6506371f6ef3ae75f90600090a2505050565b816101925760405162461bcd60e51b8152602060048201526012602482015271052616e646f6d2063616e6e6f7420626520360741b60448201526064015b60405180910390fd5b846101a25763363d383360e11b94505b836101b2576336b0b4b760e11b93505b826101bc57600092505b60408051602081018790529081018590526060808201859052608082018490526bffffffffffffffffffffffff1933821b811660a08401524260b48401524190911b1660d4820152434060e88201526000906101080160408051601f1981840301815282825280516020918201209083018990529082018790526060820186905260808201819052915060009060a00160405160208183030381529060405280519060200120905061026d816106d6565b6102a65760405162461bcd60e51b815260206004820152600a60248201526944494420696e2075736560b01b6044820152606401610189565b60008054604080516102008101825283815260208101849052808201849052606081018490526080810184905260a080820185905260c080830186905260e08301869052610100830186905261012083018690526101408301869052610160830186905261018083018690526101a083018690526101c083018690526101e0830186905283519182019093526001600160a01b039093169263c959dd209286928992879281906103649082016565697031353560d01b815260060190565b60405160208183030381529060405261037c9061084e565b815260200160405160200161039a90621b1b1b60e91b815260030190565b6040516020818303038152906040526103b29061084e565b815233602082018190526000604080840182905260609093015290516001600160e01b031960e089901b1681526103f496959493929190600190600401610875565b60408051808303816000875af1158015610412573d6000803e3d6000fd5b505050506040513d601f19601f820116820180604052508101906104369190610900565b6000549092506001600160a01b031690506333521c6d8261045b630784ce0042610924565b6040516001600160e01b031960e085901b168152600481019290925260248201526044016020604051808303816000875af115801561049e573d6000803e3d6000fd5b505050506040513d601f19601f820116820180604052508101906104c29190610835565b506104cc82610713565b604051339084907fc4e16972f67284004a0a3bc3498bface6e7c575ad245dc1267778ebe946f28a190600090a35050505050505050565b896105465760405162461bcd60e51b815260206004820152601360248201527204d6574686f64302063616e6e6f74206265203606c1b6044820152606401610189565b866105875760405162461bcd60e51b81526020600482015260116024820152700564d2049442063616e6e6f74206265203607c1b6044820152606401610189565b60408051602081018c90529081018a9052606081018990526080810188905260009060a0016040516020818303038152906040528051906020012090506105cd816106d6565b156106085760405162461bcd60e51b815260206004820152600b60248201526a11125108195e1c1a5c995960aa1b6044820152606401610189565b6000805460405163064acee960e51b815282916001600160a01b03169063c959dd20906106459086908d908d908d908d908d908d9060040161094b565b60408051808303816000875af1158015610663573d6000803e3d6000fd5b505050506040513d601f19601f820116820180604052508101906106879190610900565b915091508189847f61f4472950dfdda443f3ccb5a1ea979befe3c52904252b0fb894e68b3d8896a1846040516106bf91815260200190565b60405180910390a450505050505050505050505050565b6000818152600260205260408120544211806106fe5750600082815260026020526040902054155b1561070b57506001919050565b506000919050565b610721630784ce0042610924565b60009182526002602052604090912055565b6000806040838503121561074657600080fd5b50508035926020909101359150565b600080600080600060a0868803121561076d57600080fd5b505083359560208501359550604085013594606081013594506080013592509050565b6000806000806000806000806000806103a08b8d0312156107b057600080fd5b8a35995060208b0135985060408b0135975060608b0135965060808b0135955060a08b013594506102c08b018c8111156107e957600080fd5b60c08c0194506103608c018d81111561080157600080fd5b909350356001600160a01b038116811461081a57600080fd5b809250506103808b013590509295989b9194979a5092959850565b60006020828403121561084757600080fd5b5051919050565b8051602080830151919081101561086f576000198160200360031b1b821691505b50919050565b60006103408201905088825260208881840152876040840152606083018760005b60108110156108b357815183529183019190830190600101610896565b50505061026083018660005b60058110156108dc578151835291830191908301906001016108bf565b505050506001600160a01b0393909316610300820152610320015295945050505050565b6000806040838503121561091357600080fd5b505080516020909101519092909150565b8082018082111561094557634e487b7160e01b600052601160045260246000fd5b92915050565b8781526020810187905260408101869052610340810161020086606084013760a0856102608401376001600160a01b039390931661030082015261032001529594505050505056fea26469706673582212201cfe8b996d89e77de463a568ebbaa6fe174d09233930b9f531fd60c1a82e350364736f6c63430008140033","opcodes":"PUSH1 0x80 PUSH1 0x40 MSTORE CALLVALUE DUP1 ISZERO PUSH2 0x10 JUMPI PUSH1 0x0 DUP1 REVERT JUMPDEST POP PUSH1 0x40 MLOAD PUSH2 0xA8A CODESIZE SUB DUP1 PUSH2 0xA8A DUP4 CODECOPY DUP2 ADD PUSH1 0x40 DUP2 SWAP1 MSTORE PUSH2 0x2F SWAP2 PUSH2 0x78 JUMP JUMPDEST PUSH1 0x0 DUP1 SLOAD PUSH1 0x1 PUSH1 0x1 PUSH1 0xA0 SHL SUB SWAP4 DUP5 AND PUSH1 0x1 PUSH1 0x1 PUSH1 0xA0 SHL SUB NOT SWAP2 DUP3 AND OR SWAP1 SWAP2 SSTORE PUSH1 0x1 DUP1 SLOAD SWAP3 SWAP1 SWAP4 AND SWAP2 AND OR SWAP1 SSTORE PUSH2 0xB2 JUMP JUMPDEST PUSH1 0x1 PUSH1 0x1 PUSH1 0xA0 SHL SUB DUP2 AND DUP2 EQ PUSH2 0x75 JUMPI PUSH1 0x0 DUP1 REVERT JUMPDEST POP JUMP JUMPDEST PUSH1 0x0 DUP1 PUSH1 0x40 DUP4 DUP6 SUB SLT ISZERO PUSH2 0x8B JUMPI PUSH1 0x0 DUP1 REVERT JUMPDEST DUP3 MLOAD PUSH2 0x96 DUP2 PUSH2 0x60 JUMP JUMPDEST PUSH1 0x20 DUP5 ADD MLOAD SWAP1 SWAP3 POP PUSH2 0xA7 DUP2 PUSH2 0x60 JUMP JUMPDEST DUP1 SWAP2 POP POP SWAP3 POP SWAP3 SWAP1 POP JUMP JUMPDEST PUSH2 0x9C9 DUP1 PUSH2 0xC1 PUSH1 0x0 CODECOPY PUSH1 0x0 RETURN INVALID PUSH1 0x80 PUSH1 0x40 MSTORE CALLVALUE DUP1 ISZERO PUSH2 0x10 JUMPI PUSH1 0x0 DUP1 REVERT JUMPDEST POP PUSH1 0x4 CALLDATASIZE LT PUSH2 0x4C JUMPI PUSH1 0x0 CALLDATALOAD PUSH1 0xE0 SHR DUP1 PUSH4 0x33521C6D EQ PUSH2 0x51 JUMPI DUP1 PUSH4 0x39275529 EQ PUSH2 0x66 JUMPI DUP1 PUSH4 0xC2017B2D EQ PUSH2 0x7B JUMPI DUP1 PUSH4 0xEEBC04AF EQ PUSH2 0x8E JUMPI JUMPDEST PUSH1 0x0 DUP1 REVERT JUMPDEST PUSH2 0x64 PUSH2 0x5F CALLDATASIZE PUSH1 0x4 PUSH2 0x733 JUMP JUMPDEST PUSH2 0xA1 JUMP JUMPDEST STOP JUMPDEST PUSH2 0x64 PUSH2 0x74 CALLDATASIZE PUSH1 0x4 PUSH2 0x755 JUMP JUMPDEST POP POP POP POP POP JUMP JUMPDEST PUSH2 0x64 PUSH2 0x89 CALLDATASIZE PUSH1 0x4 PUSH2 0x755 JUMP JUMPDEST PUSH2 0x14B JUMP JUMPDEST PUSH2 0x64 PUSH2 0x9C CALLDATASIZE PUSH1 0x4 PUSH2 0x790 JUMP JUMPDEST PUSH2 0x503 JUMP JUMPDEST PUSH1 0x0 DUP1 SLOAD PUSH1 0x40 MLOAD PUSH4 0x33521C6D PUSH1 0xE0 SHL DUP2 MSTORE PUSH1 0x4 DUP2 ADD DUP6 SWAP1 MSTORE PUSH1 0x24 DUP2 ADD DUP5 SWAP1 MSTORE PUSH1 0x1 PUSH1 0x1 PUSH1 0xA0 SHL SUB SWAP1 SWAP2 AND SWAP1 PUSH4 0x33521C6D SWAP1 PUSH1 0x44 ADD PUSH1 0x20 PUSH1 0x40 MLOAD DUP1 DUP4 SUB DUP2 PUSH1 0x0 DUP8 GAS CALL ISZERO DUP1 ISZERO PUSH2 0xF4 JUMPI RETURNDATASIZE PUSH1 0x0 DUP1 RETURNDATACOPY RETURNDATASIZE PUSH1 0x0 REVERT JUMPDEST POP POP POP POP PUSH1 0x40 MLOAD RETURNDATASIZE PUSH1 0x1F NOT PUSH1 0x1F DUP3 ADD AND DUP3 ADD DUP1 PUSH1 0x40 MSTORE POP DUP2 ADD SWAP1 PUSH2 0x118 SWAP2 SWAP1 PUSH2 0x835 JUMP JUMPDEST PUSH1 0x40 MLOAD SWAP1 SWAP2 POP DUP2 SWAP1 PUSH32 0x89096E1DCBF6CC6FC9A1AD30B140A66D57974392CA88C0C6506371F6EF3AE75F SWAP1 PUSH1 0x0 SWAP1 LOG2 POP POP POP JUMP JUMPDEST DUP2 PUSH2 0x192 JUMPI PUSH1 0x40 MLOAD PUSH3 0x461BCD PUSH1 0xE5 SHL DUP2 MSTORE PUSH1 0x20 PUSH1 0x4 DUP3 ADD MSTORE PUSH1 0x12 PUSH1 0x24 DUP3 ADD MSTORE PUSH18 0x52616E646F6D2063616E6E6F74206265203 PUSH1 0x74 SHL PUSH1 0x44 DUP3 ADD MSTORE PUSH1 0x64 ADD JUMPDEST PUSH1 0x40 MLOAD DUP1 SWAP2 SUB SWAP1 REVERT JUMPDEST DUP5 PUSH2 0x1A2 JUMPI PUSH4 0x363D3833 PUSH1 0xE1 SHL SWAP5 POP JUMPDEST DUP4 PUSH2 0x1B2 JUMPI PUSH4 0x36B0B4B7 PUSH1 0xE1 SHL SWAP4 POP JUMPDEST DUP3 PUSH2 0x1BC JUMPI PUSH1 0x0 SWAP3 POP JUMPDEST PUSH1 0x40 DUP1 MLOAD PUSH1 0x20 DUP2 ADD DUP8 SWAP1 MSTORE SWAP1 DUP2 ADD DUP6 SWAP1 MSTORE PUSH1 0x60 DUP1 DUP3 ADD DUP6 SWAP1 MSTORE PUSH1 0x80 DUP3 ADD DUP5 SWAP1 MSTORE PUSH12 0xFFFFFFFFFFFFFFFFFFFFFFFF NOT CALLER DUP3 SHL DUP2 AND PUSH1 0xA0 DUP5 ADD MSTORE TIMESTAMP PUSH1 0xB4 DUP5 ADD MSTORE COINBASE SWAP1 SWAP2 SHL AND PUSH1 0xD4 DUP3 ADD MSTORE NUMBER BLOCKHASH PUSH1 0xE8 DUP3 ADD MSTORE PUSH1 0x0 SWAP1 PUSH2 0x108 ADD PUSH1 0x40 DUP1 MLOAD PUSH1 0x1F NOT DUP2 DUP5 SUB ADD DUP2 MSTORE DUP3 DUP3 MSTORE DUP1 MLOAD PUSH1 0x20 SWAP2 DUP3 ADD KECCAK256 SWAP1 DUP4 ADD DUP10 SWAP1 MSTORE SWAP1 DUP3 ADD DUP8 SWAP1 MSTORE PUSH1 0x60 DUP3 ADD DUP7 SWAP1 MSTORE PUSH1 0x80 DUP3 ADD DUP2 SWAP1 MSTORE SWAP2 POP PUSH1 0x0 SWAP1 PUSH1 0xA0 ADD PUSH1 0x40 MLOAD PUSH1 0x20 DUP2 DUP4 SUB SUB DUP2 MSTORE SWAP1 PUSH1 0x40 MSTORE DUP1 MLOAD SWAP1 PUSH1 0x20 ADD KECCAK256 SWAP1 POP PUSH2 0x26D DUP2 PUSH2 0x6D6 JUMP JUMPDEST PUSH2 0x2A6 JUMPI PUSH1 0x40 MLOAD PUSH3 0x461BCD PUSH1 0xE5 SHL DUP2 MSTORE PUSH1 0x20 PUSH1 0x4 DUP3 ADD MSTORE PUSH1 0xA PUSH1 0x24 DUP3 ADD MSTORE PUSH10 0x44494420696E20757365 PUSH1 0xB0 SHL PUSH1 0x44 DUP3 ADD MSTORE PUSH1 0x64 ADD PUSH2 0x189 JUMP JUMPDEST PUSH1 0x0 DUP1 SLOAD PUSH1 0x40 DUP1 MLOAD PUSH2 0x200 DUP2 ADD DUP3 MSTORE DUP4 DUP2 MSTORE PUSH1 0x20 DUP2 ADD DUP5 SWAP1 MSTORE DUP1 DUP3 ADD DUP5 SWAP1 MSTORE PUSH1 0x60 DUP2 ADD DUP5 SWAP1 MSTORE PUSH1 0x80 DUP2 ADD DUP5 SWAP1 MSTORE PUSH1 0xA0 DUP1 DUP3 ADD DUP6 SWAP1 MSTORE PUSH1 0xC0 DUP1 DUP4 ADD DUP7 SWAP1 MSTORE PUSH1 0xE0 DUP4 ADD DUP7 SWAP1 MSTORE PUSH2 0x100 DUP4 ADD DUP7 SWAP1 MSTORE PUSH2 0x120 DUP4 ADD DUP7 SWAP1 MSTORE PUSH2 0x140 DUP4 ADD DUP7 SWAP1 MSTORE PUSH2 0x160 DUP4 ADD DUP7 SWAP1 MSTORE PUSH2 0x180 DUP4 ADD DUP7 SWAP1 MSTORE PUSH2 0x1A0 DUP4 ADD DUP7 SWAP1 MSTORE PUSH2 0x1C0 DUP4 ADD DUP7 SWAP1 MSTORE PUSH2 0x1E0 DUP4 ADD DUP7 SWAP1 MSTORE DUP4 MLOAD SWAP2 DUP3 ADD SWAP1 SWAP4 MSTORE PUSH1 0x1 PUSH1 0x1 PUSH1 0xA0 SHL SUB SWAP1 SWAP4 AND SWAP3 PUSH4 0xC959DD20 SWAP3 DUP7 SWAP3 DUP10 SWAP3 DUP8 SWAP3 DUP2 SWAP1 PUSH2 0x364 SWAP1 DUP3 ADD PUSH6 0x656970313535 PUSH1 0xD0 SHL DUP2 MSTORE PUSH1 0x6 ADD SWAP1 JUMP JUMPDEST PUSH1 0x40 MLOAD PUSH1 0x20 DUP2 DUP4 SUB SUB DUP2 MSTORE SWAP1 PUSH1 0x40 MSTORE PUSH2 0x37C SWAP1 PUSH2 0x84E JUMP JUMPDEST DUP2 MSTORE PUSH1 0x20 ADD PUSH1 0x40 MLOAD PUSH1 0x20 ADD PUSH2 0x39A SWAP1 PUSH3 0x1B1B1B PUSH1 0xE9 SHL DUP2 MSTORE PUSH1 0x3 ADD SWAP1 JUMP JUMPDEST PUSH1 0x40 MLOAD PUSH1 0x20 DUP2 DUP4 SUB SUB DUP2 MSTORE SWAP1 PUSH1 0x40 MSTORE PUSH2 0x3B2 SWAP1 PUSH2 0x84E JUMP JUMPDEST DUP2 MSTORE CALLER PUSH1 0x20 DUP3 ADD DUP2 SWAP1 MSTORE PUSH1 0x0 PUSH1 0x40 DUP1 DUP5 ADD DUP3 SWAP1 MSTORE PUSH1 0x60 SWAP1 SWAP4 ADD MSTORE SWAP1 MLOAD PUSH1 0x1 PUSH1 0x1 PUSH1 0xE0 SHL SUB NOT PUSH1 0xE0 DUP10 SWAP1 SHL AND DUP2 MSTORE PUSH2 0x3F4 SWAP7 SWAP6 SWAP5 SWAP4 SWAP3 SWAP2 SWAP1 PUSH1 0x1 SWAP1 PUSH1 0x4 ADD PUSH2 0x875 JUMP JUMPDEST PUSH1 0x40 DUP1 MLOAD DUP1 DUP4 SUB DUP2 PUSH1 0x0 DUP8 GAS CALL ISZERO DUP1 ISZERO PUSH2 0x412 JUMPI RETURNDATASIZE PUSH1 0x0 DUP1 RETURNDATACOPY RETURNDATASIZE PUSH1 0x0 REVERT JUMPDEST POP POP POP POP PUSH1 0x40 MLOAD RETURNDATASIZE PUSH1 0x1F NOT PUSH1 0x1F DUP3 ADD AND DUP3 ADD DUP1 PUSH1 0x40 MSTORE POP DUP2 ADD SWAP1 PUSH2 0x436 SWAP2 SWAP1 PUSH2 0x900 JUMP JUMPDEST PUSH1 0x0 SLOAD SWAP1 SWAP3 POP PUSH1 0x1 PUSH1 0x1 PUSH1 0xA0 SHL SUB AND SWAP1 POP PUSH4 0x33521C6D DUP3 PUSH2 0x45B PUSH4 0x784CE00 TIMESTAMP PUSH2 0x924 JUMP JUMPDEST PUSH1 0x40 MLOAD PUSH1 0x1 PUSH1 0x1 PUSH1 0xE0 SHL SUB NOT PUSH1 0xE0 DUP6 SWAP1 SHL AND DUP2 MSTORE PUSH1 0x4 DUP2 ADD SWAP3 SWAP1 SWAP3 MSTORE PUSH1 0x24 DUP3 ADD MSTORE PUSH1 0x44 ADD PUSH1 0x20 PUSH1 0x40 MLOAD DUP1 DUP4 SUB DUP2 PUSH1 0x0 DUP8 GAS CALL ISZERO DUP1 ISZERO PUSH2 0x49E JUMPI RETURNDATASIZE PUSH1 0x0 DUP1 RETURNDATACOPY RETURNDATASIZE PUSH1 0x0 REVERT JUMPDEST POP POP POP POP PUSH1 0x40 MLOAD RETURNDATASIZE PUSH1 0x1F NOT PUSH1 0x1F DUP3 ADD AND DUP3 ADD DUP1 PUSH1 0x40 MSTORE POP DUP2 ADD SWAP1 PUSH2 0x4C2 SWAP2 SWAP1 PUSH2 0x835 JUMP JUMPDEST POP PUSH2 0x4CC DUP3 PUSH2 0x713 JUMP JUMPDEST PUSH1 0x40 MLOAD CALLER SWAP1 DUP5 SWAP1 PUSH32 0xC4E16972F67284004A0A3BC3498BFACE6E7C575AD245DC1267778EBE946F28A1 SWAP1 PUSH1 0x0 SWAP1 LOG3 POP POP POP POP POP POP POP POP JUMP JUMPDEST DUP10 PUSH2 0x546 JUMPI PUSH1 0x40 MLOAD PUSH3 0x461BCD PUSH1 0xE5 SHL DUP2 MSTORE PUSH1 0x20 PUSH1 0x4 DUP3 ADD MSTORE PUSH1 0x13 PUSH1 0x24 DUP3 ADD MSTORE PUSH19 0x4D6574686F64302063616E6E6F74206265203 PUSH1 0x6C SHL PUSH1 0x44 DUP3 ADD MSTORE PUSH1 0x64 ADD PUSH2 0x189 JUMP JUMPDEST DUP7 PUSH2 0x587 JUMPI PUSH1 0x40 MLOAD PUSH3 0x461BCD PUSH1 0xE5 SHL DUP2 MSTORE PUSH1 0x20 PUSH1 0x4 DUP3 ADD MSTORE PUSH1 0x11 PUSH1 0x24 DUP3 ADD MSTORE PUSH17 0x564D2049442063616E6E6F74206265203 PUSH1 0x7C SHL PUSH1 0x44 DUP3 ADD MSTORE PUSH1 0x64 ADD PUSH2 0x189 JUMP JUMPDEST PUSH1 0x40 DUP1 MLOAD PUSH1 0x20 DUP2 ADD DUP13 SWAP1 MSTORE SWAP1 DUP2 ADD DUP11 SWAP1 MSTORE PUSH1 0x60 DUP2 ADD DUP10 SWAP1 MSTORE PUSH1 0x80 DUP2 ADD DUP9 SWAP1 MSTORE PUSH1 0x0 SWAP1 PUSH1 0xA0 ADD PUSH1 0x40 MLOAD PUSH1 0x20 DUP2 DUP4 SUB SUB DUP2 MSTORE SWAP1 PUSH1 0x40 MSTORE DUP1 MLOAD SWAP1 PUSH1 0x20 ADD KECCAK256 SWAP1 POP PUSH2 0x5CD DUP2 PUSH2 0x6D6 JUMP JUMPDEST ISZERO PUSH2 0x608 JUMPI PUSH1 0x40 MLOAD PUSH3 0x461BCD PUSH1 0xE5 SHL DUP2 MSTORE PUSH1 0x20 PUSH1 0x4 DUP3 ADD MSTORE PUSH1 0xB PUSH1 0x24 DUP3 ADD MSTORE PUSH11 0x11125108195E1C1A5C9959 PUSH1 0xAA SHL PUSH1 0x44 DUP3 ADD MSTORE PUSH1 0x64 ADD PUSH2 0x189 JUMP JUMPDEST PUSH1 0x0 DUP1 SLOAD PUSH1 0x40 MLOAD PUSH4 0x64ACEE9 PUSH1 0xE5 SHL DUP2 MSTORE DUP3 SWAP2 PUSH1 0x1 PUSH1 0x1 PUSH1 0xA0 SHL SUB AND SWAP1 PUSH4 0xC959DD20 SWAP1 PUSH2 0x645 SWAP1 DUP7 SWAP1 DUP14 SWAP1 DUP14 SWAP1 DUP14 SWAP1 DUP14 SWAP1 DUP14 SWAP1 DUP14 SWAP1 PUSH1 0x4 ADD PUSH2 0x94B JUMP JUMPDEST PUSH1 0x40 DUP1 MLOAD DUP1 DUP4 SUB DUP2 PUSH1 0x0 DUP8 GAS CALL ISZERO DUP1 ISZERO PUSH2 0x663 JUMPI RETURNDATASIZE PUSH1 0x0 DUP1 RETURNDATACOPY RETURNDATASIZE PUSH1 0x0 REVERT JUMPDEST POP POP POP POP PUSH1 0x40 MLOAD RETURNDATASIZE PUSH1 0x1F NOT PUSH1 0x1F DUP3 ADD AND DUP3 ADD DUP1 PUSH1 0x40 MSTORE POP DUP2 ADD SWAP1 PUSH2 0x687 SWAP2 SWAP1 PUSH2 0x900 JUMP JUMPDEST SWAP2 POP SWAP2 POP DUP2 DUP10 DUP5 PUSH32 0x61F4472950DFDDA443F3CCB5A1EA979BEFE3C52904252B0FB894E68B3D8896A1 DUP5 PUSH1 0x40 MLOAD PUSH2 0x6BF SWAP2 DUP2 MSTORE PUSH1 0x20 ADD SWAP1 JUMP JUMPDEST PUSH1 0x40 MLOAD DUP1 SWAP2 SUB SWAP1 LOG4 POP POP POP POP POP POP POP POP POP POP POP POP POP JUMP JUMPDEST PUSH1 0x0 DUP2 DUP2 MSTORE PUSH1 0x2 PUSH1 0x20 MSTORE PUSH1 0x40 DUP2 KECCAK256 SLOAD TIMESTAMP GT DUP1 PUSH2 0x6FE JUMPI POP PUSH1 0x0 DUP3 DUP2 MSTORE PUSH1 0x2 PUSH1 0x20 MSTORE PUSH1 0x40 SWAP1 KECCAK256 SLOAD ISZERO JUMPDEST ISZERO PUSH2 0x70B JUMPI POP PUSH1 0x1 SWAP2 SWAP1 POP JUMP JUMPDEST POP PUSH1 0x0 SWAP2 SWAP1 POP JUMP JUMPDEST PUSH2 0x721 PUSH4 0x784CE00 TIMESTAMP PUSH2 0x924 JUMP JUMPDEST PUSH1 0x0 SWAP2 DUP3 MSTORE PUSH1 0x2 PUSH1 0x20 MSTORE PUSH1 0x40 SWAP1 SWAP2 KECCAK256 SSTORE JUMP JUMPDEST PUSH1 0x0 DUP1 PUSH1 0x40 DUP4 DUP6 SUB SLT ISZERO PUSH2 0x746 JUMPI PUSH1 0x0 DUP1 REVERT JUMPDEST POP POP DUP1 CALLDATALOAD SWAP3 PUSH1 0x20 SWAP1 SWAP2 ADD CALLDATALOAD SWAP2 POP JUMP JUMPDEST PUSH1 0x0 DUP1 PUSH1 0x0 DUP1 PUSH1 0x0 PUSH1 0xA0 DUP7 DUP9 SUB SLT ISZERO PUSH2 0x76D JUMPI PUSH1 0x0 DUP1 REVERT JUMPDEST POP POP DUP4 CALLDATALOAD SWAP6 PUSH1 0x20 DUP6 ADD CALLDATALOAD SWAP6 POP PUSH1 0x40 DUP6 ADD CALLDATALOAD SWAP5 PUSH1 0x60 DUP2 ADD CALLDATALOAD SWAP5 POP PUSH1 0x80 ADD CALLDATALOAD SWAP3 POP SWAP1 POP JUMP JUMPDEST PUSH1 0x0 DUP1 PUSH1 0x0 DUP1 PUSH1 0x0 DUP1 PUSH1 0x0 DUP1 PUSH1 0x0 DUP1 PUSH2 0x3A0 DUP12 DUP14 SUB SLT ISZERO PUSH2 0x7B0 JUMPI PUSH1 0x0 DUP1 REVERT JUMPDEST DUP11 CALLDATALOAD SWAP10 POP PUSH1 0x20 DUP12 ADD CALLDATALOAD SWAP9 POP PUSH1 0x40 DUP12 ADD CALLDATALOAD SWAP8 POP PUSH1 0x60 DUP12 ADD CALLDATALOAD SWAP7 POP PUSH1 0x80 DUP12 ADD CALLDATALOAD SWAP6 POP PUSH1 0xA0 DUP12 ADD CALLDATALOAD SWAP5 POP PUSH2 0x2C0 DUP12 ADD DUP13 DUP2 GT ISZERO PUSH2 0x7E9 JUMPI PUSH1 0x0 DUP1 REVERT JUMPDEST PUSH1 0xC0 DUP13 ADD SWAP5 POP PUSH2 0x360 DUP13 ADD DUP14 DUP2 GT ISZERO PUSH2 0x801 JUMPI PUSH1 0x0 DUP1 REVERT JUMPDEST SWAP1 SWAP4 POP CALLDATALOAD PUSH1 0x1 PUSH1 0x1 PUSH1 0xA0 SHL SUB DUP2 AND DUP2 EQ PUSH2 0x81A JUMPI PUSH1 0x0 DUP1 REVERT JUMPDEST DUP1 SWAP3 POP POP PUSH2 0x380 DUP12 ADD CALLDATALOAD SWAP1 POP SWAP3 SWAP6 SWAP9 SWAP12 SWAP2 SWAP5 SWAP8 SWAP11 POP SWAP3 SWAP6 SWAP9 POP JUMP JUMPDEST PUSH1 0x0 PUSH1 0x20 DUP3 DUP5 SUB SLT ISZERO PUSH2 0x847 JUMPI PUSH1 0x0 DUP1 REVERT JUMPDEST POP MLOAD SWAP2 SWAP1 POP JUMP JUMPDEST DUP1 MLOAD PUSH1 0x20 DUP1 DUP4 ADD MLOAD SWAP2 SWAP1 DUP2 LT ISZERO PUSH2 0x86F JUMPI PUSH1 0x0 NOT DUP2 PUSH1 0x20 SUB PUSH1 0x3 SHL SHL DUP3 AND SWAP2 POP JUMPDEST POP SWAP2 SWAP1 POP JUMP JUMPDEST PUSH1 0x0 PUSH2 0x340 DUP3 ADD SWAP1 POP DUP9 DUP3 MSTORE PUSH1 0x20 DUP9 DUP2 DUP5 ADD MSTORE DUP8 PUSH1 0x40 DUP5 ADD MSTORE PUSH1 0x60 DUP4 ADD DUP8 PUSH1 0x0 JUMPDEST PUSH1 0x10 DUP2 LT ISZERO PUSH2 0x8B3 JUMPI DUP2 MLOAD DUP4 MSTORE SWAP2 DUP4 ADD SWAP2 SWAP1 DUP4 ADD SWAP1 PUSH1 0x1 ADD PUSH2 0x896 JUMP JUMPDEST POP POP POP PUSH2 0x260 DUP4 ADD DUP7 PUSH1 0x0 JUMPDEST PUSH1 0x5 DUP2 LT ISZERO PUSH2 0x8DC JUMPI DUP2 MLOAD DUP4 MSTORE SWAP2 DUP4 ADD SWAP2 SWAP1 DUP4 ADD SWAP1 PUSH1 0x1 ADD PUSH2 0x8BF JUMP JUMPDEST POP POP POP POP PUSH1 0x1 PUSH1 0x1 PUSH1 0xA0 SHL SUB SWAP4 SWAP1 SWAP4 AND PUSH2 0x300 DUP3 ADD MSTORE PUSH2 0x320 ADD MSTORE SWAP6 SWAP5 POP POP POP POP POP JUMP JUMPDEST PUSH1 0x0 DUP1 PUSH1 0x40 DUP4 DUP6 SUB SLT ISZERO PUSH2 0x913 JUMPI PUSH1 0x0 DUP1 REVERT JUMPDEST POP POP DUP1 MLOAD PUSH1 0x20 SWAP1 SWAP2 ADD MLOAD SWAP1 SWAP3 SWAP1 SWAP2 POP JUMP JUMPDEST DUP1 DUP3 ADD DUP1 DUP3 GT ISZERO PUSH2 0x945 JUMPI PUSH4 0x4E487B71 PUSH1 0xE0 SHL PUSH1 0x0 MSTORE PUSH1 0x11 PUSH1 0x4 MSTORE PUSH1 0x24 PUSH1 0x0 REVERT JUMPDEST SWAP3 SWAP2 POP POP JUMP JUMPDEST DUP8 DUP2 MSTORE PUSH1 0x20 DUP2 ADD DUP8 SWAP1 MSTORE PUSH1 0x40 DUP2 ADD DUP7 SWAP1 MSTORE PUSH2 0x340 DUP2 ADD PUSH2 0x200 DUP7 PUSH1 0x60 DUP5 ADD CALLDATACOPY PUSH1 0xA0 DUP6 PUSH2 0x260 DUP5 ADD CALLDATACOPY PUSH1 0x1 PUSH1 0x1 PUSH1 0xA0 SHL SUB SWAP4 SWAP1 SWAP4 AND PUSH2 0x300 DUP3 ADD MSTORE PUSH2 0x320 ADD MSTORE SWAP6 SWAP5 POP POP POP POP POP JUMP INVALID LOG2 PUSH5 0x6970667358 0x22 SLT KECCAK256 SHR INVALID DUP12 SWAP10 PUSH14 0x89E77DE463A568EBBAA6FE174D09 0x23 CODECOPY ADDRESS 0xB9 CREATE2 BALANCE REVERT PUSH1 0xC1 0xA8 0x2E CALLDATALOAD SUB PUSH5 0x736F6C6343 STOP ADDMOD EQ STOP CALLER "},"methodIdentifiers":{"addController(bytes32,bytes32,bytes32,bytes32,bytes32)":"39275529","createDid(bytes32,bytes32,bytes32,bytes32,bytes32)":"c2017b2d","createVM(bytes32,bytes32,bytes32,bytes32,bytes32,bytes32,bytes32[16],bytes32[5],address,uint256)":"eebc04af","validateVM(bytes32,uint256)":"33521c6d"}},"storageLayout":{"storage":[{"astId":33,"contract":"contracts/DidManager.sol:DidManager","label":"_vmStorage","offset":0,"slot":"0","type":"t_contract(IVMStorage)624"},{"astId":36,"contract":"contracts/DidManager.sol:DidManager","label":"_serviceStorage","offset":0,"slot":"1","type":"t_contract(IServiceStorage)560"},{"astId":40,"contract":"contracts/DidManager.sol:DidManager","label":"_expirationDate","offset":0,"slot":"2","type":"t_mapping(t_bytes32,t_uint256)"},{"astId":46,"contract":"contracts/DidManager.sol:DidManager","label":"_controllers","offset":0,"slot":"3","type":"t_mapping(t_bytes32,t_array(t_bytes32)5_storage)"}],"types":{"t_array(t_bytes32)5_storage":{"base":"t_bytes32","encoding":"inplace","label":"bytes32[5]","numberOfBytes":"160"},"t_bytes32":{"encoding":"inplace","label":"bytes32","numberOfBytes":"32"},"t_contract(IServiceStorage)560":{"encoding":"inplace","label":"contract IServiceStorage","numberOfBytes":"20"},"t_contract(IVMStorage)624":{"encoding":"inplace","label":"contract IVMStorage","numberOfBytes":"20"},"t_mapping(t_bytes32,t_array(t_bytes32)5_storage)":{"encoding":"mapping","key":"t_bytes32","label":"mapping(bytes32 => bytes32[5])","numberOfBytes":"32","value":"t_array(t_bytes32)5_storage"},"t_mapping(t_bytes32,t_uint256)":{"encoding":"mapping","key":"t_bytes32","label":"mapping(bytes32 => uint256)","numberOfBytes":"32","value":"t_uint256"},"t_uint256":{"encoding":"inplace","label":"uint256","numberOfBytes":"32"}}}}}}