{"contracts/DidManager.sol":{"DidManager":{"abi":[{"anonymous":false,"inputs":[{"indexed":true,"internalType":"bytes32","name":"idHash","type":"bytes32"},{"indexed":true,"internalType":"address","name":"creator","type":"address"}],"name":"DidCreated","type":"event"},{"anonymous":false,"inputs":[{"indexed":true,"internalType":"bytes32","name":"didIdHash","type":"bytes32"},{"indexed":true,"internalType":"bytes32","name":"id","type":"bytes32"},{"indexed":true,"internalType":"bytes32","name":"vmIdHash","type":"bytes32"},{"indexed":false,"internalType":"bytes32","name":"positionHash","type":"bytes32"}],"name":"VMCreated","type":"event"},{"anonymous":false,"inputs":[{"indexed":true,"internalType":"bytes32","name":"id","type":"bytes32"}],"name":"VMValidated","type":"event"},{"inputs":[{"internalType":"bytes32","name":"method0","type":"bytes32"},{"internalType":"bytes32","name":"method1","type":"bytes32"},{"internalType":"bytes32","name":"method2","type":"bytes32"},{"internalType":"bytes32","name":"id","type":"bytes32"},{"internalType":"bytes32","name":"vmId","type":"bytes32"}],"name":"addController","outputs":[],"stateMutability":"nonpayable","type":"function"},{"inputs":[{"internalType":"bytes32","name":"method0","type":"bytes32"},{"internalType":"bytes32","name":"method1","type":"bytes32"},{"internalType":"bytes32","name":"method2","type":"bytes32"},{"internalType":"bytes32","name":"random","type":"bytes32"},{"internalType":"bytes32","name":"vmId","type":"bytes32"}],"name":"createDid","outputs":[],"stateMutability":"nonpayable","type":"function"},{"inputs":[{"internalType":"bytes32","name":"method0","type":"bytes32"},{"internalType":"bytes32","name":"method1","type":"bytes32"},{"internalType":"bytes32","name":"method2","type":"bytes32"},{"internalType":"bytes32","name":"id","type":"bytes32"},{"internalType":"bytes32","name":"vmId","type":"bytes32"},{"internalType":"bytes32[2]","name":"type_","type":"bytes32[2]"},{"internalType":"bytes32[16]","name":"publicKey","type":"bytes32[16]"},{"internalType":"bytes32[5]","name":"blockchainAccountId","type":"bytes32[5]"},{"internalType":"address","name":"thisBCAddress","type":"address"},{"internalType":"uint256","name":"expiration","type":"uint256"}],"name":"createVM","outputs":[],"stateMutability":"nonpayable","type":"function"},{"inputs":[{"internalType":"bytes32","name":"positionHash","type":"bytes32"},{"internalType":"uint256","name":"expiration","type":"uint256"}],"name":"validateVM","outputs":[],"stateMutability":"nonpayable","type":"function"}],"evm":{"bytecode":{"linkReferences":{},"object":"608060405234801561001057600080fd5b50610c93806100206000396000f3fe608060405234801561001057600080fd5b506004361061004c5760003560e01c80631da5c6211461005157806333521c6d146100665780633927552914610079578063c2017b2d1461008e575b600080fd5b61006461005f366004610ad9565b6100a1565b005b610064610074366004610b8b565b61027f565b610064610087366004610bad565b5050505050565b61006461009c366004610bad565b6102bf565b896100e95760405162461bcd60e51b815260206004820152601360248201527204d6574686f64302063616e6e6f74206265203606c1b60448201526064015b60405180910390fd5b8661012a5760405162461bcd60e51b81526020600482015260116024820152700564d2049442063616e6e6f74206265203607c1b60448201526064016100e0565b60408051602081018c90529081018a9052606081018990526080810188905260009060a0016040516020818303038152906040528051906020012090506101708161059b565b156101ab5760405162461bcd60e51b815260206004820152600b60248201526a11125108195e1c1a5c995960aa1b60448201526064016100e0565b600080610230838a8a6002806020026040519081016040528092919082600260200280828437600092019190915250506040805161020081810190925291508c906010908390839080828437600092019190915250506040805160a081810190925291508c9060059083908390808284376000920191909152508c91508b90506105d8565b915091508189847f61f4472950dfdda443f3ccb5a1ea979befe3c52904252b0fb894e68b3d8896a18460405161026891815260200190565b60405180910390a450505050505050505050505050565b600061028c838333610887565b60405190915081907f89096e1dcbf6cc6fc9a1ad30b140a66d57974392ca88c0c6506371f6ef3ae75f90600090a2505050565b816103015760405162461bcd60e51b8152602060048201526012602482015271052616e646f6d2063616e6e6f7420626520360741b60448201526064016100e0565b846103115763363d383360e11b94505b83610321576336b0b4b760e11b93505b8261032b57600092505b60408051602081018790529081018590526060808201859052608082018490526bffffffffffffffffffffffff1933821b811660a08401524260b48401524190911b1660d4820152434060e88201526000906101080160408051601f1981840301815282825280516020918201209083018990529082018790526060820186905260808201819052915060009060a0016040516020818303038152906040528051906020012090506103dc8161059b565b6104155760405162461bcd60e51b815260206004820152600a60248201526944494420696e2075736560b01b60448201526064016100e0565b60408051808201825260008082526020808301829052835161020081018552828152908101829052808401829052606081018290526080810182905260a080820183905260c080830184905260e08301849052610100830184905261012083018490526101408301849052610160830184905261018083018490526101a083018490526101c083018490526101e08301849052855191820186526565697031353560d01b90820152845160a681830301815260c68201909552919361053e9386938993919281906104e590610be8565b815260200160405160200161050390621b1b1b60e91b815260030190565b60405160208183030381529060405261051b90610be8565b8152336020820181905260006040830181905260609092019190915260016105d8565b915061055a905081610554630784ce0042610c25565b33610887565b506105648261099a565b604051339084907fc4e16972f67284004a0a3bc3498bface6e7c575ad245dc1267778ebe946f28a190600090a35050505050505050565b6000818152600360205260408120544211806105c35750600082815260036020526040902054155b156105d057506001919050565b506000919050565b6000808861061d5760405162461bcd60e51b81526020600482015260126024820152710c5cdd081c185c985b481c995c5d5a5c995960721b60448201526064016100e0565b8761065f5760405162461bcd60e51b81526020600482015260126024820152710c9b99081c185c985b481c995c5d5a5c995960721b60448201526064016100e0565b855115158061066e5750845115155b8061068157506001600160a01b03841615155b6106cd5760405162461bcd60e51b815260206004820181905260248201527f347468206f7220357468206f722036746820706172616d20726571756972656460448201526064016100e0565b876106dd57630766d2d360e41b97505b865161071e57604080518082019091527f4563647361536563703235366b31566572696669636174696f6e4b6579323000815261313960f01b602082015296505b8260000361073757610734426301e13380610c25565b92505b6001600160a01b0384161561074b57600092505b61075589896109ba565b6000818152602081905260409020805492945090925090156107ad5760405162461bcd60e51b8152602060048201526011602482015270564d20616c72656164792065786973747360781b60448201526064016100e0565b8881556107bf60018201896002610a2c565b506107cf60038201886010610a6a565b506107df60138201876005610a97565b50601881018054630101010160a81b63ffffffff60a81b196001600160a81b03199092166001600160a01b03891617600160a01b17919091161790556019810184905560008a8152600260208181526040808420805488865260018452918520805460ff191660ff9384161790558e8552929091528154169161086183610c3e565b91906101000a81548160ff021916908360ff160217905550505097509795505050505050565b6000826000036108a25761089f426301e13380610c25565b92505b600084815260208190526040902080546108ed5760405162461bcd60e51b815260206004820152600c60248201526b1593481b9bdd08199bdd5b9960a21b60448201526064016100e0565b6019810154156109365760405162461bcd60e51b8152602060048201526014602482015273159348185b1c9958591e481d985b1a59185d195960621b60448201526064016100e0565b60188101546001600160a01b0384811691161461098a5760405162461bcd60e51b815260206004820152601260248201527143616e6e6f742076616c696461746520564d60701b60448201526064016100e0565b6019810193909355505054919050565b6109a8630784ce0042610c25565b60009182526003602052604090912055565b60008083836040516020016109d9929190918252602082015260400190565b60408051601f198184030181528282528051602091820120600081815260018352839020548285019890985260ff9097168383015281518084038301815260609093019091528151910120939492505050565b8260028101928215610a5a579160200282015b82811115610a5a578251825591602001919060010190610a3f565b50610a66929150610ac4565b5090565b8260108101928215610a5a5791602002820182811115610a5a578251825591602001919060010190610a3f565b8260058101928215610a5a5791602002820182811115610a5a578251825591602001919060010190610a3f565b5b80821115610a665760008155600101610ac5565b6000806000806000806000806000806103c08b8d031215610af957600080fd5b8a35995060208b0135985060408b0135975060608b0135965060808b0135955060e08b018c811115610b2a57600080fd5b60a08c0195506102e08c018d811115610b4257600080fd5b9094506103808c01908d821115610b5857600080fd5b9350356001600160a01b0381168114610b7057600080fd5b809250506103a08b013590509295989b9194979a5092959850565b60008060408385031215610b9e57600080fd5b50508035926020909101359150565b600080600080600060a08688031215610bc557600080fd5b505083359560208501359550604085013594606081013594506080013592509050565b80516020808301519190811015610c09576000198160200360031b1b821691505b50919050565b634e487b7160e01b600052601160045260246000fd5b80820180821115610c3857610c38610c0f565b92915050565b600060ff821660ff8103610c5457610c54610c0f565b6001019291505056fea26469706673582212201d47fd11aba8c4ea09ce0262a57a06364d6f7677335b4b872ff6af174d9dad2d64736f6c63430008140033","opcodes":"PUSH1 0x80 PUSH1 0x40 MSTORE CALLVALUE DUP1 ISZERO PUSH2 0x10 JUMPI PUSH1 0x0 DUP1 REVERT JUMPDEST POP PUSH2 0xC93 DUP1 PUSH2 0x20 PUSH1 0x0 CODECOPY PUSH1 0x0 RETURN INVALID PUSH1 0x80 PUSH1 0x40 MSTORE CALLVALUE DUP1 ISZERO PUSH2 0x10 JUMPI PUSH1 0x0 DUP1 REVERT JUMPDEST POP PUSH1 0x4 CALLDATASIZE LT PUSH2 0x4C JUMPI PUSH1 0x0 CALLDATALOAD PUSH1 0xE0 SHR DUP1 PUSH4 0x1DA5C621 EQ PUSH2 0x51 JUMPI DUP1 PUSH4 0x33521C6D EQ PUSH2 0x66 JUMPI DUP1 PUSH4 0x39275529 EQ PUSH2 0x79 JUMPI DUP1 PUSH4 0xC2017B2D EQ PUSH2 0x8E JUMPI JUMPDEST PUSH1 0x0 DUP1 REVERT JUMPDEST PUSH2 0x64 PUSH2 0x5F CALLDATASIZE PUSH1 0x4 PUSH2 0xAD9 JUMP JUMPDEST PUSH2 0xA1 JUMP JUMPDEST STOP JUMPDEST PUSH2 0x64 PUSH2 0x74 CALLDATASIZE PUSH1 0x4 PUSH2 0xB8B JUMP JUMPDEST PUSH2 0x27F JUMP JUMPDEST PUSH2 0x64 PUSH2 0x87 CALLDATASIZE PUSH1 0x4 PUSH2 0xBAD JUMP JUMPDEST POP POP POP POP POP JUMP JUMPDEST PUSH2 0x64 PUSH2 0x9C CALLDATASIZE PUSH1 0x4 PUSH2 0xBAD JUMP JUMPDEST PUSH2 0x2BF JUMP JUMPDEST DUP10 PUSH2 0xE9 JUMPI PUSH1 0x40 MLOAD PUSH3 0x461BCD PUSH1 0xE5 SHL DUP2 MSTORE PUSH1 0x20 PUSH1 0x4 DUP3 ADD MSTORE PUSH1 0x13 PUSH1 0x24 DUP3 ADD MSTORE PUSH19 0x4D6574686F64302063616E6E6F74206265203 PUSH1 0x6C SHL PUSH1 0x44 DUP3 ADD MSTORE PUSH1 0x64 ADD JUMPDEST PUSH1 0x40 MLOAD DUP1 SWAP2 SUB SWAP1 REVERT JUMPDEST DUP7 PUSH2 0x12A JUMPI PUSH1 0x40 MLOAD PUSH3 0x461BCD PUSH1 0xE5 SHL DUP2 MSTORE PUSH1 0x20 PUSH1 0x4 DUP3 ADD MSTORE PUSH1 0x11 PUSH1 0x24 DUP3 ADD MSTORE PUSH17 0x564D2049442063616E6E6F74206265203 PUSH1 0x7C SHL PUSH1 0x44 DUP3 ADD MSTORE PUSH1 0x64 ADD PUSH2 0xE0 JUMP JUMPDEST PUSH1 0x40 DUP1 MLOAD PUSH1 0x20 DUP2 ADD DUP13 SWAP1 MSTORE SWAP1 DUP2 ADD DUP11 SWAP1 MSTORE PUSH1 0x60 DUP2 ADD DUP10 SWAP1 MSTORE PUSH1 0x80 DUP2 ADD DUP9 SWAP1 MSTORE PUSH1 0x0 SWAP1 PUSH1 0xA0 ADD PUSH1 0x40 MLOAD PUSH1 0x20 DUP2 DUP4 SUB SUB DUP2 MSTORE SWAP1 PUSH1 0x40 MSTORE DUP1 MLOAD SWAP1 PUSH1 0x20 ADD KECCAK256 SWAP1 POP PUSH2 0x170 DUP2 PUSH2 0x59B JUMP JUMPDEST ISZERO PUSH2 0x1AB JUMPI PUSH1 0x40 MLOAD PUSH3 0x461BCD PUSH1 0xE5 SHL DUP2 MSTORE PUSH1 0x20 PUSH1 0x4 DUP3 ADD MSTORE PUSH1 0xB PUSH1 0x24 DUP3 ADD MSTORE PUSH11 0x11125108195E1C1A5C9959 PUSH1 0xAA SHL PUSH1 0x44 DUP3 ADD MSTORE PUSH1 0x64 ADD PUSH2 0xE0 JUMP JUMPDEST PUSH1 0x0 DUP1 PUSH2 0x230 DUP4 DUP11 DUP11 PUSH1 0x2 DUP1 PUSH1 0x20 MUL PUSH1 0x40 MLOAD SWAP1 DUP2 ADD PUSH1 0x40 MSTORE DUP1 SWAP3 SWAP2 SWAP1 DUP3 PUSH1 0x2 PUSH1 0x20 MUL DUP1 DUP3 DUP5 CALLDATACOPY PUSH1 0x0 SWAP3 ADD SWAP2 SWAP1 SWAP2 MSTORE POP POP PUSH1 0x40 DUP1 MLOAD PUSH2 0x200 DUP2 DUP2 ADD SWAP1 SWAP3 MSTORE SWAP2 POP DUP13 SWAP1 PUSH1 0x10 SWAP1 DUP4 SWAP1 DUP4 SWAP1 DUP1 DUP3 DUP5 CALLDATACOPY PUSH1 0x0 SWAP3 ADD SWAP2 SWAP1 SWAP2 MSTORE POP POP PUSH1 0x40 DUP1 MLOAD PUSH1 0xA0 DUP2 DUP2 ADD SWAP1 SWAP3 MSTORE SWAP2 POP DUP13 SWAP1 PUSH1 0x5 SWAP1 DUP4 SWAP1 DUP4 SWAP1 DUP1 DUP3 DUP5 CALLDATACOPY PUSH1 0x0 SWAP3 ADD SWAP2 SWAP1 SWAP2 MSTORE POP DUP13 SWAP2 POP DUP12 SWAP1 POP PUSH2 0x5D8 JUMP JUMPDEST SWAP2 POP SWAP2 POP DUP2 DUP10 DUP5 PUSH32 0x61F4472950DFDDA443F3CCB5A1EA979BEFE3C52904252B0FB894E68B3D8896A1 DUP5 PUSH1 0x40 MLOAD PUSH2 0x268 SWAP2 DUP2 MSTORE PUSH1 0x20 ADD SWAP1 JUMP JUMPDEST PUSH1 0x40 MLOAD DUP1 SWAP2 SUB SWAP1 LOG4 POP POP POP POP POP POP POP POP POP POP POP POP POP JUMP JUMPDEST PUSH1 0x0 PUSH2 0x28C DUP4 DUP4 CALLER PUSH2 0x887 JUMP JUMPDEST PUSH1 0x40 MLOAD SWAP1 SWAP2 POP DUP2 SWAP1 PUSH32 0x89096E1DCBF6CC6FC9A1AD30B140A66D57974392CA88C0C6506371F6EF3AE75F SWAP1 PUSH1 0x0 SWAP1 LOG2 POP POP POP JUMP JUMPDEST DUP2 PUSH2 0x301 JUMPI PUSH1 0x40 MLOAD PUSH3 0x461BCD PUSH1 0xE5 SHL DUP2 MSTORE PUSH1 0x20 PUSH1 0x4 DUP3 ADD MSTORE PUSH1 0x12 PUSH1 0x24 DUP3 ADD MSTORE PUSH18 0x52616E646F6D2063616E6E6F74206265203 PUSH1 0x74 SHL PUSH1 0x44 DUP3 ADD MSTORE PUSH1 0x64 ADD PUSH2 0xE0 JUMP JUMPDEST DUP5 PUSH2 0x311 JUMPI PUSH4 0x363D3833 PUSH1 0xE1 SHL SWAP5 POP JUMPDEST DUP4 PUSH2 0x321 JUMPI PUSH4 0x36B0B4B7 PUSH1 0xE1 SHL SWAP4 POP JUMPDEST DUP3 PUSH2 0x32B JUMPI PUSH1 0x0 SWAP3 POP JUMPDEST PUSH1 0x40 DUP1 MLOAD PUSH1 0x20 DUP2 ADD DUP8 SWAP1 MSTORE SWAP1 DUP2 ADD DUP6 SWAP1 MSTORE PUSH1 0x60 DUP1 DUP3 ADD DUP6 SWAP1 MSTORE PUSH1 0x80 DUP3 ADD DUP5 SWAP1 MSTORE PUSH12 0xFFFFFFFFFFFFFFFFFFFFFFFF NOT CALLER DUP3 SHL DUP2 AND PUSH1 0xA0 DUP5 ADD MSTORE TIMESTAMP PUSH1 0xB4 DUP5 ADD MSTORE COINBASE SWAP1 SWAP2 SHL AND PUSH1 0xD4 DUP3 ADD MSTORE NUMBER BLOCKHASH PUSH1 0xE8 DUP3 ADD MSTORE PUSH1 0x0 SWAP1 PUSH2 0x108 ADD PUSH1 0x40 DUP1 MLOAD PUSH1 0x1F NOT DUP2 DUP5 SUB ADD DUP2 MSTORE DUP3 DUP3 MSTORE DUP1 MLOAD PUSH1 0x20 SWAP2 DUP3 ADD KECCAK256 SWAP1 DUP4 ADD DUP10 SWAP1 MSTORE SWAP1 DUP3 ADD DUP8 SWAP1 MSTORE PUSH1 0x60 DUP3 ADD DUP7 SWAP1 MSTORE PUSH1 0x80 DUP3 ADD DUP2 SWAP1 MSTORE SWAP2 POP PUSH1 0x0 SWAP1 PUSH1 0xA0 ADD PUSH1 0x40 MLOAD PUSH1 0x20 DUP2 DUP4 SUB SUB DUP2 MSTORE SWAP1 PUSH1 0x40 MSTORE DUP1 MLOAD SWAP1 PUSH1 0x20 ADD KECCAK256 SWAP1 POP PUSH2 0x3DC DUP2 PUSH2 0x59B JUMP JUMPDEST PUSH2 0x415 JUMPI PUSH1 0x40 MLOAD PUSH3 0x461BCD PUSH1 0xE5 SHL DUP2 MSTORE PUSH1 0x20 PUSH1 0x4 DUP3 ADD MSTORE PUSH1 0xA PUSH1 0x24 DUP3 ADD MSTORE PUSH10 0x44494420696E20757365 PUSH1 0xB0 SHL PUSH1 0x44 DUP3 ADD MSTORE PUSH1 0x64 ADD PUSH2 0xE0 JUMP JUMPDEST PUSH1 0x40 DUP1 MLOAD DUP1 DUP3 ADD DUP3 MSTORE PUSH1 0x0 DUP1 DUP3 MSTORE PUSH1 0x20 DUP1 DUP4 ADD DUP3 SWAP1 MSTORE DUP4 MLOAD PUSH2 0x200 DUP2 ADD DUP6 MSTORE DUP3 DUP2 MSTORE SWAP1 DUP2 ADD DUP3 SWAP1 MSTORE DUP1 DUP5 ADD DUP3 SWAP1 MSTORE PUSH1 0x60 DUP2 ADD DUP3 SWAP1 MSTORE PUSH1 0x80 DUP2 ADD DUP3 SWAP1 MSTORE PUSH1 0xA0 DUP1 DUP3 ADD DUP4 SWAP1 MSTORE PUSH1 0xC0 DUP1 DUP4 ADD DUP5 SWAP1 MSTORE PUSH1 0xE0 DUP4 ADD DUP5 SWAP1 MSTORE PUSH2 0x100 DUP4 ADD DUP5 SWAP1 MSTORE PUSH2 0x120 DUP4 ADD DUP5 SWAP1 MSTORE PUSH2 0x140 DUP4 ADD DUP5 SWAP1 MSTORE PUSH2 0x160 DUP4 ADD DUP5 SWAP1 MSTORE PUSH2 0x180 DUP4 ADD DUP5 SWAP1 MSTORE PUSH2 0x1A0 DUP4 ADD DUP5 SWAP1 MSTORE PUSH2 0x1C0 DUP4 ADD DUP5 SWAP1 MSTORE PUSH2 0x1E0 DUP4 ADD DUP5 SWAP1 MSTORE DUP6 MLOAD SWAP2 DUP3 ADD DUP7 MSTORE PUSH6 0x656970313535 PUSH1 0xD0 SHL SWAP1 DUP3 ADD MSTORE DUP5 MLOAD PUSH1 0xA6 DUP2 DUP4 SUB ADD DUP2 MSTORE PUSH1 0xC6 DUP3 ADD SWAP1 SWAP6 MSTORE SWAP2 SWAP4 PUSH2 0x53E SWAP4 DUP7 SWAP4 DUP10 SWAP4 SWAP2 SWAP3 DUP2 SWAP1 PUSH2 0x4E5 SWAP1 PUSH2 0xBE8 JUMP JUMPDEST DUP2 MSTORE PUSH1 0x20 ADD PUSH1 0x40 MLOAD PUSH1 0x20 ADD PUSH2 0x503 SWAP1 PUSH3 0x1B1B1B PUSH1 0xE9 SHL DUP2 MSTORE PUSH1 0x3 ADD SWAP1 JUMP JUMPDEST PUSH1 0x40 MLOAD PUSH1 0x20 DUP2 DUP4 SUB SUB DUP2 MSTORE SWAP1 PUSH1 0x40 MSTORE PUSH2 0x51B SWAP1 PUSH2 0xBE8 JUMP JUMPDEST DUP2 MSTORE CALLER PUSH1 0x20 DUP3 ADD DUP2 SWAP1 MSTORE PUSH1 0x0 PUSH1 0x40 DUP4 ADD DUP2 SWAP1 MSTORE PUSH1 0x60 SWAP1 SWAP3 ADD SWAP2 SWAP1 SWAP2 MSTORE PUSH1 0x1 PUSH2 0x5D8 JUMP JUMPDEST SWAP2 POP PUSH2 0x55A SWAP1 POP DUP2 PUSH2 0x554 PUSH4 0x784CE00 TIMESTAMP PUSH2 0xC25 JUMP JUMPDEST CALLER PUSH2 0x887 JUMP JUMPDEST POP PUSH2 0x564 DUP3 PUSH2 0x99A JUMP JUMPDEST PUSH1 0x40 MLOAD CALLER SWAP1 DUP5 SWAP1 PUSH32 0xC4E16972F67284004A0A3BC3498BFACE6E7C575AD245DC1267778EBE946F28A1 SWAP1 PUSH1 0x0 SWAP1 LOG3 POP POP POP POP POP POP POP POP JUMP JUMPDEST PUSH1 0x0 DUP2 DUP2 MSTORE PUSH1 0x3 PUSH1 0x20 MSTORE PUSH1 0x40 DUP2 KECCAK256 SLOAD TIMESTAMP GT DUP1 PUSH2 0x5C3 JUMPI POP PUSH1 0x0 DUP3 DUP2 MSTORE PUSH1 0x3 PUSH1 0x20 MSTORE PUSH1 0x40 SWAP1 KECCAK256 SLOAD ISZERO JUMPDEST ISZERO PUSH2 0x5D0 JUMPI POP PUSH1 0x1 SWAP2 SWAP1 POP JUMP JUMPDEST POP PUSH1 0x0 SWAP2 SWAP1 POP JUMP JUMPDEST PUSH1 0x0 DUP1 DUP9 PUSH2 0x61D JUMPI PUSH1 0x40 MLOAD PUSH3 0x461BCD PUSH1 0xE5 SHL DUP2 MSTORE PUSH1 0x20 PUSH1 0x4 DUP3 ADD MSTORE PUSH1 0x12 PUSH1 0x24 DUP3 ADD MSTORE PUSH18 0xC5CDD081C185C985B481C995C5D5A5C9959 PUSH1 0x72 SHL PUSH1 0x44 DUP3 ADD MSTORE PUSH1 0x64 ADD PUSH2 0xE0 JUMP JUMPDEST DUP8 PUSH2 0x65F JUMPI PUSH1 0x40 MLOAD PUSH3 0x461BCD PUSH1 0xE5 SHL DUP2 MSTORE PUSH1 0x20 PUSH1 0x4 DUP3 ADD MSTORE PUSH1 0x12 PUSH1 0x24 DUP3 ADD MSTORE PUSH18 0xC9B99081C185C985B481C995C5D5A5C9959 PUSH1 0x72 SHL PUSH1 0x44 DUP3 ADD MSTORE PUSH1 0x64 ADD PUSH2 0xE0 JUMP JUMPDEST DUP6 MLOAD ISZERO ISZERO DUP1 PUSH2 0x66E JUMPI POP DUP5 MLOAD ISZERO ISZERO JUMPDEST DUP1 PUSH2 0x681 JUMPI POP PUSH1 0x1 PUSH1 0x1 PUSH1 0xA0 SHL SUB DUP5 AND ISZERO ISZERO JUMPDEST PUSH2 0x6CD JUMPI PUSH1 0x40 MLOAD PUSH3 0x461BCD PUSH1 0xE5 SHL DUP2 MSTORE PUSH1 0x20 PUSH1 0x4 DUP3 ADD DUP2 SWAP1 MSTORE PUSH1 0x24 DUP3 ADD MSTORE PUSH32 0x347468206F7220357468206F722036746820706172616D207265717569726564 PUSH1 0x44 DUP3 ADD MSTORE PUSH1 0x64 ADD PUSH2 0xE0 JUMP JUMPDEST DUP8 PUSH2 0x6DD JUMPI PUSH4 0x766D2D3 PUSH1 0xE4 SHL SWAP8 POP JUMPDEST DUP7 MLOAD PUSH2 0x71E JUMPI PUSH1 0x40 DUP1 MLOAD DUP1 DUP3 ADD SWAP1 SWAP2 MSTORE PUSH32 0x4563647361536563703235366B31566572696669636174696F6E4B6579323000 DUP2 MSTORE PUSH2 0x3139 PUSH1 0xF0 SHL PUSH1 0x20 DUP3 ADD MSTORE SWAP7 POP JUMPDEST DUP3 PUSH1 0x0 SUB PUSH2 0x737 JUMPI PUSH2 0x734 TIMESTAMP PUSH4 0x1E13380 PUSH2 0xC25 JUMP JUMPDEST SWAP3 POP JUMPDEST PUSH1 0x1 PUSH1 0x1 PUSH1 0xA0 SHL SUB DUP5 AND ISZERO PUSH2 0x74B JUMPI PUSH1 0x0 SWAP3 POP JUMPDEST PUSH2 0x755 DUP10 DUP10 PUSH2 0x9BA JUMP JUMPDEST PUSH1 0x0 DUP2 DUP2 MSTORE PUSH1 0x20 DUP2 SWAP1 MSTORE PUSH1 0x40 SWAP1 KECCAK256 DUP1 SLOAD SWAP3 SWAP5 POP SWAP1 SWAP3 POP SWAP1 ISZERO PUSH2 0x7AD JUMPI PUSH1 0x40 MLOAD PUSH3 0x461BCD PUSH1 0xE5 SHL DUP2 MSTORE PUSH1 0x20 PUSH1 0x4 DUP3 ADD MSTORE PUSH1 0x11 PUSH1 0x24 DUP3 ADD MSTORE PUSH17 0x564D20616C726561647920657869737473 PUSH1 0x78 SHL PUSH1 0x44 DUP3 ADD MSTORE PUSH1 0x64 ADD PUSH2 0xE0 JUMP JUMPDEST DUP9 DUP2 SSTORE PUSH2 0x7BF PUSH1 0x1 DUP3 ADD DUP10 PUSH1 0x2 PUSH2 0xA2C JUMP JUMPDEST POP PUSH2 0x7CF PUSH1 0x3 DUP3 ADD DUP9 PUSH1 0x10 PUSH2 0xA6A JUMP JUMPDEST POP PUSH2 0x7DF PUSH1 0x13 DUP3 ADD DUP8 PUSH1 0x5 PUSH2 0xA97 JUMP JUMPDEST POP PUSH1 0x18 DUP2 ADD DUP1 SLOAD PUSH4 0x1010101 PUSH1 0xA8 SHL PUSH4 0xFFFFFFFF PUSH1 0xA8 SHL NOT PUSH1 0x1 PUSH1 0x1 PUSH1 0xA8 SHL SUB NOT SWAP1 SWAP3 AND PUSH1 0x1 PUSH1 0x1 PUSH1 0xA0 SHL SUB DUP10 AND OR PUSH1 0x1 PUSH1 0xA0 SHL OR SWAP2 SWAP1 SWAP2 AND OR SWAP1 SSTORE PUSH1 0x19 DUP2 ADD DUP5 SWAP1 SSTORE PUSH1 0x0 DUP11 DUP2 MSTORE PUSH1 0x2 PUSH1 0x20 DUP2 DUP2 MSTORE PUSH1 0x40 DUP1 DUP5 KECCAK256 DUP1 SLOAD DUP9 DUP7 MSTORE PUSH1 0x1 DUP5 MSTORE SWAP2 DUP6 KECCAK256 DUP1 SLOAD PUSH1 0xFF NOT AND PUSH1 0xFF SWAP4 DUP5 AND OR SWAP1 SSTORE DUP15 DUP6 MSTORE SWAP3 SWAP1 SWAP2 MSTORE DUP2 SLOAD AND SWAP2 PUSH2 0x861 DUP4 PUSH2 0xC3E JUMP JUMPDEST SWAP2 SWAP1 PUSH2 0x100 EXP DUP2 SLOAD DUP2 PUSH1 0xFF MUL NOT AND SWAP1 DUP4 PUSH1 0xFF AND MUL OR SWAP1 SSTORE POP POP POP SWAP8 POP SWAP8 SWAP6 POP POP POP POP POP POP JUMP JUMPDEST PUSH1 0x0 DUP3 PUSH1 0x0 SUB PUSH2 0x8A2 JUMPI PUSH2 0x89F TIMESTAMP PUSH4 0x1E13380 PUSH2 0xC25 JUMP JUMPDEST SWAP3 POP JUMPDEST PUSH1 0x0 DUP5 DUP2 MSTORE PUSH1 0x20 DUP2 SWAP1 MSTORE PUSH1 0x40 SWAP1 KECCAK256 DUP1 SLOAD PUSH2 0x8ED JUMPI PUSH1 0x40 MLOAD PUSH3 0x461BCD PUSH1 0xE5 SHL DUP2 MSTORE PUSH1 0x20 PUSH1 0x4 DUP3 ADD MSTORE PUSH1 0xC PUSH1 0x24 DUP3 ADD MSTORE PUSH12 0x1593481B9BDD08199BDD5B99 PUSH1 0xA2 SHL PUSH1 0x44 DUP3 ADD MSTORE PUSH1 0x64 ADD PUSH2 0xE0 JUMP JUMPDEST PUSH1 0x19 DUP2 ADD SLOAD ISZERO PUSH2 0x936 JUMPI PUSH1 0x40 MLOAD PUSH3 0x461BCD PUSH1 0xE5 SHL DUP2 MSTORE PUSH1 0x20 PUSH1 0x4 DUP3 ADD MSTORE PUSH1 0x14 PUSH1 0x24 DUP3 ADD MSTORE PUSH20 0x159348185B1C9958591E481D985B1A59185D1959 PUSH1 0x62 SHL PUSH1 0x44 DUP3 ADD MSTORE PUSH1 0x64 ADD PUSH2 0xE0 JUMP JUMPDEST PUSH1 0x18 DUP2 ADD SLOAD PUSH1 0x1 PUSH1 0x1 PUSH1 0xA0 SHL SUB DUP5 DUP2 AND SWAP2 AND EQ PUSH2 0x98A JUMPI PUSH1 0x40 MLOAD PUSH3 0x461BCD PUSH1 0xE5 SHL DUP2 MSTORE PUSH1 0x20 PUSH1 0x4 DUP3 ADD MSTORE PUSH1 0x12 PUSH1 0x24 DUP3 ADD MSTORE PUSH18 0x43616E6E6F742076616C696461746520564D PUSH1 0x70 SHL PUSH1 0x44 DUP3 ADD MSTORE PUSH1 0x64 ADD PUSH2 0xE0 JUMP JUMPDEST PUSH1 0x19 DUP2 ADD SWAP4 SWAP1 SWAP4 SSTORE POP POP SLOAD SWAP2 SWAP1 POP JUMP JUMPDEST PUSH2 0x9A8 PUSH4 0x784CE00 TIMESTAMP PUSH2 0xC25 JUMP JUMPDEST PUSH1 0x0 SWAP2 DUP3 MSTORE PUSH1 0x3 PUSH1 0x20 MSTORE PUSH1 0x40 SWAP1 SWAP2 KECCAK256 SSTORE JUMP JUMPDEST PUSH1 0x0 DUP1 DUP4 DUP4 PUSH1 0x40 MLOAD PUSH1 0x20 ADD PUSH2 0x9D9 SWAP3 SWAP2 SWAP1 SWAP2 DUP3 MSTORE PUSH1 0x20 DUP3 ADD MSTORE PUSH1 0x40 ADD SWAP1 JUMP JUMPDEST PUSH1 0x40 DUP1 MLOAD PUSH1 0x1F NOT DUP2 DUP5 SUB ADD DUP2 MSTORE DUP3 DUP3 MSTORE DUP1 MLOAD PUSH1 0x20 SWAP2 DUP3 ADD KECCAK256 PUSH1 0x0 DUP2 DUP2 MSTORE PUSH1 0x1 DUP4 MSTORE DUP4 SWAP1 KECCAK256 SLOAD DUP3 DUP6 ADD SWAP9 SWAP1 SWAP9 MSTORE PUSH1 0xFF SWAP1 SWAP8 AND DUP4 DUP4 ADD MSTORE DUP2 MLOAD DUP1 DUP5 SUB DUP4 ADD DUP2 MSTORE PUSH1 0x60 SWAP1 SWAP4 ADD SWAP1 SWAP2 MSTORE DUP2 MLOAD SWAP2 ADD KECCAK256 SWAP4 SWAP5 SWAP3 POP POP POP JUMP JUMPDEST DUP3 PUSH1 0x2 DUP2 ADD SWAP3 DUP3 ISZERO PUSH2 0xA5A JUMPI SWAP2 PUSH1 0x20 MUL DUP3 ADD JUMPDEST DUP3 DUP2 GT ISZERO PUSH2 0xA5A JUMPI DUP3 MLOAD DUP3 SSTORE SWAP2 PUSH1 0x20 ADD SWAP2 SWAP1 PUSH1 0x1 ADD SWAP1 PUSH2 0xA3F JUMP JUMPDEST POP PUSH2 0xA66 SWAP3 SWAP2 POP PUSH2 0xAC4 JUMP JUMPDEST POP SWAP1 JUMP JUMPDEST DUP3 PUSH1 0x10 DUP2 ADD SWAP3 DUP3 ISZERO PUSH2 0xA5A JUMPI SWAP2 PUSH1 0x20 MUL DUP3 ADD DUP3 DUP2 GT ISZERO PUSH2 0xA5A JUMPI DUP3 MLOAD DUP3 SSTORE SWAP2 PUSH1 0x20 ADD SWAP2 SWAP1 PUSH1 0x1 ADD SWAP1 PUSH2 0xA3F JUMP JUMPDEST DUP3 PUSH1 0x5 DUP2 ADD SWAP3 DUP3 ISZERO PUSH2 0xA5A JUMPI SWAP2 PUSH1 0x20 MUL DUP3 ADD DUP3 DUP2 GT ISZERO PUSH2 0xA5A JUMPI DUP3 MLOAD DUP3 SSTORE SWAP2 PUSH1 0x20 ADD SWAP2 SWAP1 PUSH1 0x1 ADD SWAP1 PUSH2 0xA3F JUMP JUMPDEST JUMPDEST DUP1 DUP3 GT ISZERO PUSH2 0xA66 JUMPI PUSH1 0x0 DUP2 SSTORE PUSH1 0x1 ADD PUSH2 0xAC5 JUMP JUMPDEST PUSH1 0x0 DUP1 PUSH1 0x0 DUP1 PUSH1 0x0 DUP1 PUSH1 0x0 DUP1 PUSH1 0x0 DUP1 PUSH2 0x3C0 DUP12 DUP14 SUB SLT ISZERO PUSH2 0xAF9 JUMPI PUSH1 0x0 DUP1 REVERT JUMPDEST DUP11 CALLDATALOAD SWAP10 POP PUSH1 0x20 DUP12 ADD CALLDATALOAD SWAP9 POP PUSH1 0x40 DUP12 ADD CALLDATALOAD SWAP8 POP PUSH1 0x60 DUP12 ADD CALLDATALOAD SWAP7 POP PUSH1 0x80 DUP12 ADD CALLDATALOAD SWAP6 POP PUSH1 0xE0 DUP12 ADD DUP13 DUP2 GT ISZERO PUSH2 0xB2A JUMPI PUSH1 0x0 DUP1 REVERT JUMPDEST PUSH1 0xA0 DUP13 ADD SWAP6 POP PUSH2 0x2E0 DUP13 ADD DUP14 DUP2 GT ISZERO PUSH2 0xB42 JUMPI PUSH1 0x0 DUP1 REVERT JUMPDEST SWAP1 SWAP5 POP PUSH2 0x380 DUP13 ADD SWAP1 DUP14 DUP3 GT ISZERO PUSH2 0xB58 JUMPI PUSH1 0x0 DUP1 REVERT JUMPDEST SWAP4 POP CALLDATALOAD PUSH1 0x1 PUSH1 0x1 PUSH1 0xA0 SHL SUB DUP2 AND DUP2 EQ PUSH2 0xB70 JUMPI PUSH1 0x0 DUP1 REVERT JUMPDEST DUP1 SWAP3 POP POP PUSH2 0x3A0 DUP12 ADD CALLDATALOAD SWAP1 POP SWAP3 SWAP6 SWAP9 SWAP12 SWAP2 SWAP5 SWAP8 SWAP11 POP SWAP3 SWAP6 SWAP9 POP JUMP JUMPDEST PUSH1 0x0 DUP1 PUSH1 0x40 DUP4 DUP6 SUB SLT ISZERO PUSH2 0xB9E JUMPI PUSH1 0x0 DUP1 REVERT JUMPDEST POP POP DUP1 CALLDATALOAD SWAP3 PUSH1 0x20 SWAP1 SWAP2 ADD CALLDATALOAD SWAP2 POP JUMP JUMPDEST PUSH1 0x0 DUP1 PUSH1 0x0 DUP1 PUSH1 0x0 PUSH1 0xA0 DUP7 DUP9 SUB SLT ISZERO PUSH2 0xBC5 JUMPI PUSH1 0x0 DUP1 REVERT JUMPDEST POP POP DUP4 CALLDATALOAD SWAP6 PUSH1 0x20 DUP6 ADD CALLDATALOAD SWAP6 POP PUSH1 0x40 DUP6 ADD CALLDATALOAD SWAP5 PUSH1 0x60 DUP2 ADD CALLDATALOAD SWAP5 POP PUSH1 0x80 ADD CALLDATALOAD SWAP3 POP SWAP1 POP JUMP JUMPDEST DUP1 MLOAD PUSH1 0x20 DUP1 DUP4 ADD MLOAD SWAP2 SWAP1 DUP2 LT ISZERO PUSH2 0xC09 JUMPI PUSH1 0x0 NOT DUP2 PUSH1 0x20 SUB PUSH1 0x3 SHL SHL DUP3 AND SWAP2 POP JUMPDEST POP SWAP2 SWAP1 POP JUMP JUMPDEST PUSH4 0x4E487B71 PUSH1 0xE0 SHL PUSH1 0x0 MSTORE PUSH1 0x11 PUSH1 0x4 MSTORE PUSH1 0x24 PUSH1 0x0 REVERT JUMPDEST DUP1 DUP3 ADD DUP1 DUP3 GT ISZERO PUSH2 0xC38 JUMPI PUSH2 0xC38 PUSH2 0xC0F JUMP JUMPDEST SWAP3 SWAP2 POP POP JUMP JUMPDEST PUSH1 0x0 PUSH1 0xFF DUP3 AND PUSH1 0xFF DUP2 SUB PUSH2 0xC54 JUMPI PUSH2 0xC54 PUSH2 0xC0F JUMP JUMPDEST PUSH1 0x1 ADD SWAP3 SWAP2 POP POP JUMP INVALID LOG2 PUSH5 0x6970667358 0x22 SLT KECCAK256 SAR SELFBALANCE REVERT GT 0xAB 0xA8 0xC4 0xEA MULMOD 0xCE MUL PUSH3 0xA57A06 CALLDATASIZE 0x4D PUSH16 0x7677335B4B872FF6AF174D9DAD2D6473 PUSH16 0x6C634300081400330000000000000000 "},"methodIdentifiers":{"addController(bytes32,bytes32,bytes32,bytes32,bytes32)":"39275529","createDid(bytes32,bytes32,bytes32,bytes32,bytes32)":"c2017b2d","createVM(bytes32,bytes32,bytes32,bytes32,bytes32,bytes32[2],bytes32[16],bytes32[5],address,uint256)":"1da5c621","validateVM(bytes32,uint256)":"33521c6d"}},"storageLayout":{"storage":[{"astId":493,"contract":"contracts/DidManager.sol:DidManager","label":"_vm","offset":0,"slot":"0","type":"t_mapping(t_bytes32,t_struct(VerificationMethod)975_storage)"},{"astId":497,"contract":"contracts/DidManager.sol:DidManager","label":"_vmPositionById","offset":0,"slot":"1","type":"t_mapping(t_bytes32,t_uint8)"},{"astId":501,"contract":"contracts/DidManager.sol:DidManager","label":"_vmLength","offset":0,"slot":"2","type":"t_mapping(t_bytes32,t_uint8)"},{"astId":36,"contract":"contracts/DidManager.sol:DidManager","label":"_expirationDate","offset":0,"slot":"3","type":"t_mapping(t_bytes32,t_uint256)"},{"astId":42,"contract":"contracts/DidManager.sol:DidManager","label":"_controllers","offset":0,"slot":"4","type":"t_mapping(t_bytes32,t_array(t_bytes32)5_storage)"}],"types":{"t_address":{"encoding":"inplace","label":"address","numberOfBytes":"20"},"t_array(t_bytes32)16_storage":{"base":"t_bytes32","encoding":"inplace","label":"bytes32[16]","numberOfBytes":"512"},"t_array(t_bytes32)2_storage":{"base":"t_bytes32","encoding":"inplace","label":"bytes32[2]","numberOfBytes":"64"},"t_array(t_bytes32)5_storage":{"base":"t_bytes32","encoding":"inplace","label":"bytes32[5]","numberOfBytes":"160"},"t_bool":{"encoding":"inplace","label":"bool","numberOfBytes":"1"},"t_bytes32":{"encoding":"inplace","label":"bytes32","numberOfBytes":"32"},"t_mapping(t_bytes32,t_array(t_bytes32)5_storage)":{"encoding":"mapping","key":"t_bytes32","label":"mapping(bytes32 => bytes32[5])","numberOfBytes":"32","value":"t_array(t_bytes32)5_storage"},"t_mapping(t_bytes32,t_struct(VerificationMethod)975_storage)":{"encoding":"mapping","key":"t_bytes32","label":"mapping(bytes32 => struct VerificationMethod)","numberOfBytes":"32","value":"t_struct(VerificationMethod)975_storage"},"t_mapping(t_bytes32,t_uint256)":{"encoding":"mapping","key":"t_bytes32","label":"mapping(bytes32 => uint256)","numberOfBytes":"32","value":"t_uint256"},"t_mapping(t_bytes32,t_uint8)":{"encoding":"mapping","key":"t_bytes32","label":"mapping(bytes32 => uint8)","numberOfBytes":"32","value":"t_uint8"},"t_struct(VerificationMethod)975_storage":{"encoding":"inplace","label":"struct VerificationMethod","members":[{"astId":948,"contract":"contracts/DidManager.sol:DidManager","label":"id","offset":0,"slot":"0","type":"t_bytes32"},{"astId":952,"contract":"contracts/DidManager.sol:DidManager","label":"type_","offset":0,"slot":"1","type":"t_array(t_bytes32)2_storage"},{"astId":956,"contract":"contracts/DidManager.sol:DidManager","label":"publicKey","offset":0,"slot":"3","type":"t_array(t_bytes32)16_storage"},{"astId":960,"contract":"contracts/DidManager.sol:DidManager","label":"blockchainAccountId","offset":0,"slot":"19","type":"t_array(t_bytes32)5_storage"},{"astId":962,"contract":"contracts/DidManager.sol:DidManager","label":"thisBCAddress","offset":0,"slot":"24","type":"t_address"},{"astId":964,"contract":"contracts/DidManager.sol:DidManager","label":"authentication","offset":20,"slot":"24","type":"t_bool"},{"astId":966,"contract":"contracts/DidManager.sol:DidManager","label":"assertionMethod","offset":21,"slot":"24","type":"t_bool"},{"astId":968,"contract":"contracts/DidManager.sol:DidManager","label":"keyAgreement","offset":22,"slot":"24","type":"t_bool"},{"astId":970,"contract":"contracts/DidManager.sol:DidManager","label":"capabilityInvocation","offset":23,"slot":"24","type":"t_bool"},{"astId":972,"contract":"contracts/DidManager.sol:DidManager","label":"capabilityDelegation","offset":24,"slot":"24","type":"t_bool"},{"astId":974,"contract":"contracts/DidManager.sol:DidManager","label":"expiration","offset":0,"slot":"25","type":"t_uint256"}],"numberOfBytes":"832"},"t_uint256":{"encoding":"inplace","label":"uint256","numberOfBytes":"32"},"t_uint8":{"encoding":"inplace","label":"uint8","numberOfBytes":"1"}}}}}}