{
  "_format": "hh-sol-artifact-1",
  "contractName": "VMStorage",
  "sourceName": "contracts/VMStorage.sol",
  "abi": [
    {
      "inputs": [
        {
          "internalType": "contract IDidManager",
          "name": "didManager",
          "type": "address"
        }
      ],
      "stateMutability": "nonpayable",
      "type": "constructor"
    },
    {
      "inputs": [
        {
          "internalType": "bytes32",
          "name": "didHash",
          "type": "bytes32"
        },
        {
          "internalType": "bytes32",
          "name": "id",
          "type": "bytes32"
        },
        {
          "internalType": "bytes32",
          "name": "type_",
          "type": "bytes32"
        },
        {
          "internalType": "bytes32[16]",
          "name": "publicKey",
          "type": "bytes32[16]"
        },
        {
          "internalType": "bytes32[5]",
          "name": "blockchainAccountId",
          "type": "bytes32[5]"
        }
      ],
      "name": "createVM",
      "outputs": [
        {
          "internalType": "bytes32",
          "name": "",
          "type": "bytes32"
        }
      ],
      "stateMutability": "nonpayable",
      "type": "function"
    }
  ],
  "bytecode": "0x608060405234801561001057600080fd5b506040516105ab3803806105ab83398101604081905261002f9161009b565b6000546040516349028bf360e11b81526001600160a01b038381166004830152600160248301529091169063920517e690604401600060405180830381600087803b15801561007d57600080fd5b505af1158015610091573d6000803e3d6000fd5b50505050506100cb565b6000602082840312156100ad57600080fd5b81516001600160a01b03811681146100c457600080fd5b9392505050565b6104d1806100da6000396000f3fe608060405234801561001057600080fd5b506004361061002b5760003560e01c80636820e4c414610030575b600080fd5b61004361003e36600461040c565b610055565b60405190815260200160405180910390f35b6000610064868686868661006e565b9695505050505050565b6000856100b75760405162461bcd60e51b81526020600482015260126024820152710c5cdd081c185c985b481c995c5d5a5c995960721b60448201526064015b60405180910390fd5b846100f95760405162461bcd60e51b81526020600482015260126024820152710c9b99081c185c985b481c995c5d5a5c995960721b60448201526064016100ae565b82351515806101085750813515155b6101545760405162461bcd60e51b815260206004820152601960248201527f347468206f722035746820706172616d2072657175697265640000000000000060448201526064016100ae565b60008681526003602090815260408083205481519283018a905260f81b6001600160f81b0319169082015260410160408051601f1981840301815282825280516020918201209083018a90529082018890529150600090606001604051602081830303815290604052805190602001209050604051806101200160405280888152602001878152602001866010806020026040519081016040528092919082601060200280828437600092019190915250505081526040805160a0818101909252602090920191908790600590839083908082843760009201829052509284525050600160208084018290526040808501849052606085018490526080850184905260a09094018390528683528181529183902084518155918401519082015590820151610288906002830190601061038c565b50606082015161029e90601283019060056103ca565b506080820151601791909101805460a084015160c085015160e08601516101009687015161ffff1990941695151561ff001916959095179115159095021763ffff00001916620100009415159490940263ff0000001916939093176301000000921515929092029190911764ff000000001916640100000000921515929092029190911790556000888152600360208181526040808420805486865260028452918520805460ff93841660ff199091161790558c855292909152815416916103658361046e565b91906101000a81548160ff021916908360ff16021790555050809250505095945050505050565b82601081019282156103ba579160200282015b828111156103ba57825182559160200191906001019061039f565b506103c69291506103f7565b5090565b82600581019282156103ba57916020028201828111156103ba57825182559160200191906001019061039f565b5b808211156103c657600081556001016103f8565b600080600080600061030080878903121561042657600080fd5b86359550602087013594506040870135935061026087018881111561044a57600080fd5b60608801935088828901111561045f57600080fd5b80925050509295509295909350565b600060ff821660ff810361049257634e487b7160e01b600052601160045260246000fd5b6001019291505056fea2646970667358221220e33ce4cb4a5b2f71a0ea74917bc26552c2aa18ec7a54d011c182c34a59e6c9a864736f6c63430008140033",
  "linkReferences": {},
  "deployedLinkReferences": {}
}