{
  "_format": "hh-sol-artifact-1",
  "contractName": "VMStorage",
  "sourceName": "contracts/VMStorage.sol",
  "abi": [
    {
      "inputs": [
        {
          "internalType": "contract IDidManager",
          "name": "didManager",
          "type": "address"
        }
      ],
      "stateMutability": "nonpayable",
      "type": "constructor"
    },
    {
      "inputs": [
        {
          "internalType": "bytes32",
          "name": "didHash",
          "type": "bytes32"
        },
        {
          "internalType": "bytes32",
          "name": "id",
          "type": "bytes32"
        },
        {
          "internalType": "bytes32[2]",
          "name": "type_",
          "type": "bytes32[2]"
        },
        {
          "internalType": "bytes32[16]",
          "name": "publicKey",
          "type": "bytes32[16]"
        },
        {
          "internalType": "bytes32[5]",
          "name": "blockchainAccountId",
          "type": "bytes32[5]"
        },
        {
          "internalType": "address",
          "name": "thisBCAddress",
          "type": "address"
        },
        {
          "internalType": "uint256",
          "name": "expiration",
          "type": "uint256"
        }
      ],
      "name": "createVM",
      "outputs": [
        {
          "internalType": "bytes32",
          "name": "vmIdHash",
          "type": "bytes32"
        },
        {
          "internalType": "bytes32",
          "name": "positionHash",
          "type": "bytes32"
        }
      ],
      "stateMutability": "nonpayable",
      "type": "function"
    },
    {
      "inputs": [
        {
          "internalType": "bytes32",
          "name": "positionHash",
          "type": "bytes32"
        },
        {
          "internalType": "uint256",
          "name": "expiration",
          "type": "uint256"
        }
      ],
      "name": "validateVM",
      "outputs": [
        {
          "internalType": "bytes32",
          "name": "id",
          "type": "bytes32"
        }
      ],
      "stateMutability": "nonpayable",
      "type": "function"
    }
  ],
  "bytecode": "0x608060405234801561001057600080fd5b5060405161097038038061097083398101604081905261002f9161009b565b6000546040516349028bf360e11b81526001600160a01b038381166004830152600160248301529091169063920517e690604401600060405180830381600087803b15801561007d57600080fd5b505af1158015610091573d6000803e3d6000fd5b50505050506100cb565b6000602082840312156100ad57600080fd5b81516001600160a01b03811681146100c457600080fd5b9392505050565b610896806100da6000396000f3fe608060405234801561001057600080fd5b50600436106100365760003560e01c806333521c6d1461003b578063777dedf714610061575b600080fd5b61004e610049366004610737565b610089565b6040519081526020015b60405180910390f35b61007461006f366004610759565b61015b565b60408051928352602083019190915201610058565b600080546040516304f9402760e41b815233600482015260248101839052604481018390526001600160a01b0390911690634f94027090606401602060405180830381865afa1580156100e0573d6000803e3d6000fd5b505050506040513d601f19601f8201168201806040525081019061010491906107ef565b6101485760405162461bcd60e51b815260206004820152601060248201526f4e6f74207472757374656420636f646560801b60448201526064015b60405180910390fd5b6101528383610259565b90505b92915050565b600080546040516304f9402760e41b8152336004820152602481018390526044810183905282916001600160a01b031690634f94027090606401602060405180830381865afa1580156101b2573d6000803e3d6000fd5b505050506040513d601f19601f820116820180604052508101906101d691906107ef565b6102155760405162461bcd60e51b815260206004820152601060248201526f4e6f74207472757374656420636f646560801b604482015260640161013f565b604080518082018252610249918b918b918b9060029083908390808284376000920191909152508b91508a90508989610368565b9150915097509795505050505050565b60008160000361027457610271426301e1338061082e565b91505b600083815260016020526040902080546102bf5760405162461bcd60e51b815260206004820152600c60248201526b1593481b9bdd08199bdd5b9960a21b604482015260640161013f565b6019810154156103085760405162461bcd60e51b8152602060048201526014602482015273159348185b1c9958591e481d985b1a59185d195960621b604482015260640161013f565b60188101546001600160a01b031633146103595760405162461bcd60e51b815260206004820152601260248201527143616e6e6f742076616c696461746520564d60701b604482015260640161013f565b60198101929092555054919050565b600080886103ad5760405162461bcd60e51b81526020600482015260126024820152710c5cdd081c185c985b481c995c5d5a5c995960721b604482015260640161013f565b876103ef5760405162461bcd60e51b81526020600482015260126024820152710c9b99081c185c985b481c995c5d5a5c995960721b604482015260640161013f565b85351515806103fe5750843515155b8061041157506001600160a01b03841615155b61045d5760405162461bcd60e51b815260206004820181905260248201527f347468206f7220357468206f722036746820706172616d207265717569726564604482015260640161013f565b8761046d57630766d2d360e41b97505b86516104ae57604080518082019091527f4563647361536563703235366b31566572696669636174696f6e4b6579323000815261313960f01b602082015296505b826000036104c7576104c4426301e1338061082e565b92505b6001600160a01b038416156104db57600092505b6104e58989610617565b60008181526001602052604090208054929450909250901561053d5760405162461bcd60e51b8152602060048201526011602482015270564d20616c72656164792065786973747360781b604482015260640161013f565b88815561054f60018201896002610689565b5061055f600382018860106106c7565b5061056f601382018760056106f5565b50601881018054630101010160a81b63ffffffff60a81b196001600160a81b03199092166001600160a01b03891617600160a01b17919091161790556019810184905560008a8152600360208181526040808420805488865260028452918520805460ff191660ff9384161790558e855292909152815416916105f183610841565b91906101000a81548160ff021916908360ff160217905550505097509795505050505050565b6000808383604051602001610636929190918252602082015260400190565b60408051601f198184030181528282528051602091820120600081815260028352839020548285019890985260ff9097168383015281518084038301815260609093019091528151910120939492505050565b82600281019282156106b7579160200282015b828111156106b757825182559160200191906001019061069c565b506106c3929150610722565b5090565b82601081019282156106b7579160200282015b828111156106b75782358255916020019190600101906106da565b82600581019282156106b757916020028201828111156106b75782358255916020019190600101906106da565b5b808211156106c35760008155600101610723565b6000806040838503121561074a57600080fd5b50508035926020909101359150565b6000806000806000806000610360888a03121561077557600080fd5b8735965060208801359550608088018981111561079157600080fd5b60408901955061028089018a8111156107a957600080fd5b9094506103208901908a8211156107bf57600080fd5b9350356001600160a01b03811681146107d757600080fd5b80925050610340880135905092959891949750929550565b60006020828403121561080157600080fd5b8151801515811461081157600080fd5b9392505050565b634e487b7160e01b600052601160045260246000fd5b8082018082111561015557610155610818565b600060ff821660ff810361085757610857610818565b6001019291505056fea264697066735822122092938c54708c05381727749ce0102bf048a8032cda7b7119f6bf5dff0c6fd90864736f6c63430008140033",
  "linkReferences": {},
  "deployedLinkReferences": {}
}