{"abi":[{"type":"function","name":"isTrustedCode","inputs":[{"name":"trustedContract","type":"address","internalType":"address"},{"name":"by","type":"address","internalType":"address"},{"name":"extTimestamp","type":"uint256","internalType":"uint256"}],"outputs":[{"name":"","type":"bool","internalType":"bool"}],"stateMutability":"view"},{"type":"function","name":"trustCodeAt","inputs":[{"name":"trustedCode","type":"address","internalType":"address"},{"name":"duration","type":"uint256","internalType":"uint256"}],"outputs":[],"stateMutability":"nonpayable"},{"type":"function","name":"untrustCodeAt","inputs":[{"name":"trustedCode","type":"address","internalType":"address"}],"outputs":[],"stateMutability":"nonpayable"}],"bytecode":{"object":"0x608060405234801561001057600080fd5b50610376806100206000396000f3fe608060405234801561001057600080fd5b50600436106100415760003560e01c80634f9402701461004657806383e5e6401461006d578063920517e614610082575b600080fd5b610059610054366004610298565b610095565b604051901515815260200160405180910390f35b61008061007b3660046102d4565b61010d565b005b6100806100903660046102ef565b6101b2565b6000816000036100a3574291505b6001600160a01b0383166100b5573392505b6001600160a01b038084166000908152602081815260408083209388168352929052205460018114806100f157506100ee836005610319565b81115b15610100576001915050610106565b60009150505b9392505050565b336000908152602081815260408083206001600160a01b038516845290915290205460018114806101475750610144426005610319565b81115b61018a5760405162461bcd60e51b815260206004820152600f60248201526e105b1c9958591e48195e1c1a5c9959608a1b60448201526064015b60405180910390fd5b50336000908152602081815260408083206001600160a01b0394909416835292905220429055565b32330361024a57600a81101580156101ce57506301e133808111155b61021a5760405162461bcd60e51b815260206004820152601b60248201527f496e76616c6964206475726174696f6e2c20636865636b20446f6300000000006044820152606401610181565b6102248142610319565b336000908152602081815260408083206001600160a01b03871684529091529020555050565b600381101561021a5750336000908152602081815260408083206001600160a01b039490941683529290522060019055565b80356001600160a01b038116811461029357600080fd5b919050565b6000806000606084860312156102ad57600080fd5b6102b68461027c565b92506102c46020850161027c565b9150604084013590509250925092565b6000602082840312156102e657600080fd5b6101068261027c565b6000806040838503121561030257600080fd5b61030b8361027c565b946020939093013593505050565b8082018082111561033a57634e487b7160e01b600052601160045260246000fd5b9291505056fea2646970667358221220499adc3c53e59a6d2ec49a62cc3b1d06d5f5a06204823ccef0eb396ca824d18064736f6c63430008180033","linkReferences":{}},"methodIdentifiers":{"isTrustedCode(address,address,uint256)":"4f940270","trustCodeAt(address,uint256)":"920517e6","untrustCodeAt(address)":"83e5e640"},"id":36}