{
  "_format": "hh-sol-artifact-1",
  "contractName": "DidManager",
  "sourceName": "contracts/DidManager.sol",
  "abi": [
    {
      "inputs": [
        {
          "internalType": "contract IVMStorage",
          "name": "vmStorage",
          "type": "address"
        },
        {
          "internalType": "contract IServiceStorage",
          "name": "serviceStorage",
          "type": "address"
        }
      ],
      "stateMutability": "nonpayable",
      "type": "constructor"
    },
    {
      "anonymous": false,
      "inputs": [
        {
          "indexed": true,
          "internalType": "bytes32",
          "name": "idHash",
          "type": "bytes32"
        },
        {
          "indexed": true,
          "internalType": "address",
          "name": "creator",
          "type": "address"
        }
      ],
      "name": "DidCreated",
      "type": "event"
    },
    {
      "anonymous": false,
      "inputs": [
        {
          "indexed": true,
          "internalType": "bytes32",
          "name": "didIdHash",
          "type": "bytes32"
        },
        {
          "indexed": true,
          "internalType": "bytes32",
          "name": "id",
          "type": "bytes32"
        },
        {
          "indexed": true,
          "internalType": "bytes32",
          "name": "vmIdHash",
          "type": "bytes32"
        },
        {
          "indexed": false,
          "internalType": "bytes32",
          "name": "positionHash",
          "type": "bytes32"
        }
      ],
      "name": "VMCreated",
      "type": "event"
    },
    {
      "anonymous": false,
      "inputs": [
        {
          "indexed": true,
          "internalType": "bytes32",
          "name": "id",
          "type": "bytes32"
        }
      ],
      "name": "VMValidated",
      "type": "event"
    },
    {
      "inputs": [
        {
          "internalType": "bytes32",
          "name": "method0",
          "type": "bytes32"
        },
        {
          "internalType": "bytes32",
          "name": "method1",
          "type": "bytes32"
        },
        {
          "internalType": "bytes32",
          "name": "method2",
          "type": "bytes32"
        },
        {
          "internalType": "bytes32",
          "name": "id",
          "type": "bytes32"
        },
        {
          "internalType": "bytes32",
          "name": "vmId",
          "type": "bytes32"
        }
      ],
      "name": "addController",
      "outputs": [],
      "stateMutability": "nonpayable",
      "type": "function"
    },
    {
      "inputs": [
        {
          "internalType": "bytes32",
          "name": "method0",
          "type": "bytes32"
        },
        {
          "internalType": "bytes32",
          "name": "method1",
          "type": "bytes32"
        },
        {
          "internalType": "bytes32",
          "name": "method2",
          "type": "bytes32"
        },
        {
          "internalType": "bytes32",
          "name": "random",
          "type": "bytes32"
        },
        {
          "internalType": "bytes32",
          "name": "vmId",
          "type": "bytes32"
        }
      ],
      "name": "createDid",
      "outputs": [],
      "stateMutability": "nonpayable",
      "type": "function"
    },
    {
      "inputs": [
        {
          "internalType": "bytes32",
          "name": "method0",
          "type": "bytes32"
        },
        {
          "internalType": "bytes32",
          "name": "method1",
          "type": "bytes32"
        },
        {
          "internalType": "bytes32",
          "name": "method2",
          "type": "bytes32"
        },
        {
          "internalType": "bytes32",
          "name": "id",
          "type": "bytes32"
        },
        {
          "internalType": "bytes32",
          "name": "vmId",
          "type": "bytes32"
        },
        {
          "internalType": "bytes32",
          "name": "type_",
          "type": "bytes32"
        },
        {
          "internalType": "bytes32[16]",
          "name": "publicKey",
          "type": "bytes32[16]"
        },
        {
          "internalType": "bytes32[5]",
          "name": "blockchainAccountId",
          "type": "bytes32[5]"
        },
        {
          "internalType": "address",
          "name": "thisBCAddress",
          "type": "address"
        },
        {
          "internalType": "uint256",
          "name": "expiration",
          "type": "uint256"
        }
      ],
      "name": "createVM",
      "outputs": [],
      "stateMutability": "nonpayable",
      "type": "function"
    },
    {
      "inputs": [
        {
          "internalType": "bytes32",
          "name": "positionHash",
          "type": "bytes32"
        },
        {
          "internalType": "uint256",
          "name": "expiration",
          "type": "uint256"
        }
      ],
      "name": "validateVM",
      "outputs": [],
      "stateMutability": "nonpayable",
      "type": "function"
    }
  ],
  "bytecode": "0x608060405234801561001057600080fd5b50604051610a15380380610a1583398101604081905261002f91610078565b600080546001600160a01b039384166001600160a01b031991821617909155600180549290931691161790556100b2565b6001600160a01b038116811461007557600080fd5b50565b6000806040838503121561008b57600080fd5b825161009681610060565b60208401519092506100a781610060565b809150509250929050565b610954806100c16000396000f3fe608060405234801561001057600080fd5b506004361061004c5760003560e01c806333521c6d146100515780633927552914610066578063c2017b2d1461007b578063eebc04af1461008e575b600080fd5b61006461005f3660046106be565b6100a1565b005b6100646100743660046106e0565b5050505050565b6100646100893660046106e0565b61014b565b61006461009c36600461071b565b610512565b600080546040516333521c6d60e01b815260048101859052602481018490526001600160a01b03909116906333521c6d906044016020604051808303816000875af11580156100f4573d6000803e3d6000fd5b505050506040513d601f19601f8201168201806040525081019061011891906107c0565b60405190915081907f89096e1dcbf6cc6fc9a1ad30b140a66d57974392ca88c0c6506371f6ef3ae75f90600090a2505050565b816101925760405162461bcd60e51b8152602060048201526012602482015271052616e646f6d2063616e6e6f7420626520360741b60448201526064015b60405180910390fd5b846101a25763363d383360e11b94505b836101b2576336b0b4b760e11b93505b826101bc57600092505b806101cb5750630766d2d360e41b5b60408051602081018790529081018590526060808201859052608082018490526bffffffffffffffffffffffff1933821b811660a08401524260b48401524190911b1660d4820152434060e88201526000906101080160408051601f1981840301815282825280516020918201209083018990529082018790526060820186905260808201819052915060009060a00160405160208183030381529060405280519060200120905061027c81610661565b6102b55760405162461bcd60e51b815260206004820152600a60248201526944494420696e2075736560b01b6044820152606401610189565b60008054604080516102008101825283815260208101849052808201849052606081018490526080810184905260a080820185905260c080830186905260e08301869052610100830186905261012083018690526101408301869052610160830186905261018083018690526101a083018690526101c083018690526101e0830186905283519182019093526001600160a01b039093169263c959dd209286928992879281906103739082016565697031353560d01b815260060190565b60405160208183030381529060405261038b906107d9565b81526020016040516020016103a990621b1b1b60e91b815260030190565b6040516020818303038152906040526103c1906107d9565b815233602082018190526000604080840182905260609093015290516001600160e01b031960e089901b16815261040396959493929190600190600401610800565b60408051808303816000875af1158015610421573d6000803e3d6000fd5b505050506040513d601f19601f82011682018060405250810190610445919061088b565b6000549092506001600160a01b031690506333521c6d8261046a630784ce00426108af565b6040516001600160e01b031960e085901b168152600481019290925260248201526044016020604051808303816000875af11580156104ad573d6000803e3d6000fd5b505050506040513d601f19601f820116820180604052508101906104d191906107c0565b506104db8261069e565b604051339084907fc4e16972f67284004a0a3bc3498bface6e7c575ad245dc1267778ebe946f28a190600090a35050505050505050565b60408051602081018c90529081018a9052606081018990526080810188905260009060a00160405160208183030381529060405280519060200120905061055881610661565b156105935760405162461bcd60e51b815260206004820152600b60248201526a11125108195e1c1a5c995960aa1b6044820152606401610189565b6000805460405163064acee960e51b815282916001600160a01b03169063c959dd20906105d09086908d908d908d908d908d908d906004016108d6565b60408051808303816000875af11580156105ee573d6000803e3d6000fd5b505050506040513d601f19601f82011682018060405250810190610612919061088b565b915091508189847f61f4472950dfdda443f3ccb5a1ea979befe3c52904252b0fb894e68b3d8896a18460405161064a91815260200190565b60405180910390a450505050505050505050505050565b6000818152600260205260408120544211806106895750600082815260026020526040902054155b1561069657506001919050565b506000919050565b6106ac630784ce00426108af565b60009182526002602052604090912055565b600080604083850312156106d157600080fd5b50508035926020909101359150565b600080600080600060a086880312156106f857600080fd5b505083359560208501359550604085013594606081013594506080013592509050565b6000806000806000806000806000806103a08b8d03121561073b57600080fd5b8a35995060208b0135985060408b0135975060608b0135965060808b0135955060a08b013594506102c08b018c81111561077457600080fd5b60c08c0194506103608c018d81111561078c57600080fd5b909350356001600160a01b03811681146107a557600080fd5b809250506103808b013590509295989b9194979a5092959850565b6000602082840312156107d257600080fd5b5051919050565b805160208083015191908110156107fa576000198160200360031b1b821691505b50919050565b60006103408201905088825260208881840152876040840152606083018760005b601081101561083e57815183529183019190830190600101610821565b50505061026083018660005b60058110156108675781518352918301919083019060010161084a565b505050506001600160a01b0393909316610300820152610320015295945050505050565b6000806040838503121561089e57600080fd5b505080516020909101519092909150565b808201808211156108d057634e487b7160e01b600052601160045260246000fd5b92915050565b8781526020810187905260408101869052610340810161020086606084013760a0856102608401376001600160a01b039390931661030082015261032001529594505050505056fea2646970667358221220c86af7574a6c87751ccec1f83a4486b8f53c3253a4ac4bd5605423b67a61716964736f6c63430008140033",
  "linkReferences": {},
  "deployedLinkReferences": {}
}