{
  "_format": "hh-sol-artifact-1",
  "contractName": "DidManager",
  "sourceName": "contracts/DidManager.sol",
  "abi": [
    {
      "inputs": [],
      "stateMutability": "nonpayable",
      "type": "constructor"
    },
    {
      "anonymous": false,
      "inputs": [
        {
          "indexed": true,
          "internalType": "bytes32",
          "name": "id",
          "type": "bytes32"
        },
        {
          "indexed": true,
          "internalType": "address",
          "name": "creator",
          "type": "address"
        }
      ],
      "name": "DidCreated",
      "type": "event"
    },
    {
      "inputs": [
        {
          "internalType": "bytes32",
          "name": "method0",
          "type": "bytes32"
        },
        {
          "internalType": "bytes32",
          "name": "method1",
          "type": "bytes32"
        },
        {
          "internalType": "bytes32",
          "name": "method2",
          "type": "bytes32"
        },
        {
          "internalType": "bytes32",
          "name": "random",
          "type": "bytes32"
        }
      ],
      "name": "createDid",
      "outputs": [],
      "stateMutability": "nonpayable",
      "type": "function"
    }
  ],
  "bytecode": "0x608060405234801561001057600080fd5b506102bf806100206000396000f3fe608060405234801561001057600080fd5b506004361061002b5760003560e01c8063fbd95c5514610030575b600080fd5b61004361003e366004610230565b610045565b005b8061008c5760405162461bcd60e51b8152602060048201526012602482015271052616e646f6d2063616e6e6f7420626520360741b60448201526064015b60405180910390fd5b8361009c5763363d383360e11b93505b826100ac576336b0b4b760e11b92505b816100b657600091505b604080516020810186905290810184905260608082018490526080820183905233901b6bffffffffffffffffffffffff191660a08201524260b482015260009060d40160408051601f1981840301815282825280516020918201209083018890529082018690526060820185905260808201819052915060009060a001604051602081830303815290604052805190602001209050610154816101d3565b6101955760405162461bcd60e51b815260206004820152601260248201527144494420616c72656164792065786973747360701b6044820152606401610083565b61019e81610210565b604051339083907fc4e16972f67284004a0a3bc3498bface6e7c575ad245dc1267778ebe946f28a190600090a3505050505050565b6000818152602081905260408120544211806101fb5750600082815260208190526040902054155b1561020857506001919050565b506000919050565b61021e630784ce0042610262565b60009182526020829052604090912055565b6000806000806080858703121561024657600080fd5b5050823594602084013594506040840135936060013592509050565b8082018082111561028357634e487b7160e01b600052601160045260246000fd5b9291505056fea264697066735822122038891397537e9881f899eb6d997e2e6dc0e5f175c120b193b654a00e7efbe8fe64736f6c63430008140033",
  "linkReferences": {},
  "deployedLinkReferences": {}
}