{"abi":[{"type":"function","name":"computeAddress","inputs":[{"name":"salt","type":"bytes32","internalType":"bytes32"},{"name":"bytecodeHash","type":"bytes32","internalType":"bytes32"},{"name":"deployer","type":"address","internalType":"address"}],"outputs":[{"name":"addr","type":"address","internalType":"address"}],"stateMutability":"view"},{"type":"function","name":"deploy","inputs":[{"name":"amount","type":"uint256","internalType":"uint256"},{"name":"salt","type":"bytes32","internalType":"bytes32"},{"name":"bytecode","type":"bytes","internalType":"bytes"}],"outputs":[{"name":"addr","type":"address","internalType":"address"}],"stateMutability":"nonpayable"},{"type":"event","name":"Deployed","inputs":[{"name":"contractAddress","type":"address","indexed":true,"internalType":"address"},{"name":"sender","type":"address","indexed":true,"internalType":"address"}],"anonymous":false},{"type":"error","name":"Create2EmptyBytecode","inputs":[]},{"type":"error","name":"Create2FailedDeployment","inputs":[]},{"type":"error","name":"Create2InsufficientBalance","inputs":[{"name":"balance","type":"uint256","internalType":"uint256"},{"name":"needed","type":"uint256","internalType":"uint256"}]}],"bytecode":{"object":"0x608060405234801561001057600080fd5b506102e9806100206000396000f3fe608060405234801561001057600080fd5b50600436106100365760003560e01c806366cfa0571461003b578063780653061461006a575b600080fd5b61004e6100493660046101ee565b61007d565b6040516001600160a01b03909116815260200160405180910390f35b61004e61007836600461026e565b610101565b60006100c0858585858080601f01602080910402602001604051908101604052809392919081815260200183838082843760009201919091525061013792505050565b60405190915033906001600160a01b038316907f09e48df7857bd0c1e0d31bb8a85d42cf1874817895f171c917f6ee2cea73ec2090600090a3949350505050565b60006001600160a01b0382166101225761011b84846101bb565b9050610130565b61012d8484846101c4565b90505b9392505050565b6000834710156101675760405163392efb2b60e21b81524760048201526024810185905260440160405180910390fd5b815160000361018957604051631328927760e21b815260040160405180910390fd5b8282516020840186f590506001600160a01b03811661013057604051633a0ba96160e11b815260040160405180910390fd5b60006101308383305b6000604051836040820152846020820152828152600b8101905060ff815360559020949350505050565b6000806000806060858703121561020457600080fd5b8435935060208501359250604085013567ffffffffffffffff8082111561022a57600080fd5b818701915087601f83011261023e57600080fd5b81358181111561024d57600080fd5b88602082850101111561025f57600080fd5b95989497505060200194505050565b60008060006060848603121561028357600080fd5b833592506020840135915060408401356001600160a01b03811681146102a857600080fd5b80915050925092509256fea26469706673582212202c0301fe0a877a67eb5a7a3d9cedc2ebaef6824d566242bd13724f5c4bd8107364736f6c63430008180033","linkReferences":{}},"methodIdentifiers":{"computeAddress(bytes32,bytes32,address)":"78065306","deploy(uint256,bytes32,bytes)":"66cfa057"},"id":0}